:020000040000FA
:10200000501D0010A52A0000B12A0000A92A0000D6
:1020100000000000000000000000000000000000C0
:10202000000000000000000000000000AB2A0000DB
:102030000000000000000000AD2A000085610000E3
:10204000B12A0000B12A0000B12A0000B12A000024
:10205000B12A0000B12A0000B12A0000B12A000014
:102060009D210000B12A0000AF2A0000AF2A000025
:10207000AF2A0000AF2A0000E3280000B12A0000C8
:10208000B12A0000B12A0000B12A0000B12A0000E4
:10209000B5280000152F0000058B0000B12A0000B4
:1020A000B92F0000B12A0000B12A0000B12A0000B7
:1020B000AF2A0000AF2A0000B12A0000AF2A0000BA
:1020C00000F002F800F03EF80CA030C808382418E0
:1020D0002D18A246671EAB4654465D46AC4201D160
:1020E00000F030F87E460F3E0FCCB6460126334254
:1020F00000D0FB1AA246AB4633431847308B000092
:10210000508B0000103A02D378C878C1FAD8520731
:1021100001D330C830C101D504680C60704700009D
:102120000023002400250026103A01D378C1FBD8F3
:10213000520700D330C100D50B6070471FB51FBDDB
:1021400010B510BD00F076FF1146FFF7F7FF03F062
:1021500050FE00F08EFF03B4FFF7F2FF03BC00F067
:1021600095FF000070B505460C46164602E00FCC00
:102170000FC5103E102EFAD2082E02D303CC03C591
:10218000083E042E07D301CC01C5361F03E0217899
:102190002970641C6D1C761EF9D270BDFB48016865
:1021A000C90703D00168012211430160704710B5CF
:1021B0000123F74C8B40800000190168002A01D0F0
:1021C000194300E09943016010BD01238B4080005A
:1021D000002A01D0EF4901E0EE4980314018036048
:1021E0007047F0B5EC480168402211430160016876
:1021F0003122D20411430160E84840684109E748B0
:102200004901416040681027E44938434860012291
:1022100019211046FFF7CBFF012219211046FFF7C5
:10222000D4FFDE4D403DE86A40094001E862E86ABB
:102230003843E862012213211046FFF7B8FF01225C
:1022400013211046FFF7C1FFD44C803C20694009A0
:1022500040012061206938432061012214210020BF
:10226000FFF7A5FF012214210020FFF7AEFF206B2E
:10227000400940012063206B384320630122042180
:102280001046FFF794FF012204211046FFF79DFF3F
:10229000286B400940012863286B384328630122DA
:1022A00014211046FFF783FF012214211046FFF787
:1022B0008CFF686A400940016862686A3843686256
:1022C000012211211046FFF772FF01221121104651
:1022D000FFF77BFFE86B40094001E863002217210C
:1022E0000120FFF764FFAD4800684109AB48490190
:1022F0000160002218210120FFF759FFA86A400958
:102300004001A862002212210120FFF750FFA34ED6
:10231000C03EF06940094001F061002207211046EB
:10232000FFF745FF9D48006941099C48490101614B
:1023300000221C210120FFF73AFF606B4009400199
:102340006063002205210120FFF731FFA06A4009E8
:102350004001A062002202210120FFF728FF286827
:10236000400940012860002208210120FFF71FFFDB
:10237000A06940094001A061002216211046FFF724
:1023800016FFF06A40094001F062F06A012108433B
:10239000F06200220B211046FFF709FFE8684009B0
:1023A0004001E86000220B210120FFF700FFE06BF5
:1023B00040094001E063002207210120FFF7F7FEFA
:1023C000206A400940012062002211460120FFF7E7
:1023D000EEFEA06B40094001A0630022062101200F
:1023E000FFF7E5FE286A400940012862002210211B
:1023F0000120FFF7DCFE2869400940012861002226
:102400000C210120FFF7D3FE686840094001686095
:10241000002209210120FFF7CAFEA86B40094001F4
:10242000A863002216210120FFF7C1FEB06B40090E
:102430004001B063B06B01210843B06300220E215C
:102440001046FFF7B4FE706B400940017063706B7B
:1024500001210843706300220D211046FFF7A7FEFB
:10246000306B400940013063306B01210843306319
:1024700000220C211046FFF79AFE20684009400117
:102480002060012210210020FFF791FE0022102180
:102490001046FFF79AFE606840094001606060687E
:1024A00038436060012211210020FFF780FE0122E5
:1024B00011210020FFF789FEA06840094001A060BB
:1024C000A0683843A060012212210020FFF76FFEB0
:1024D000012212210020FFF778FEE0684009400148
:1024E000E060E0683843E060012213210020FFF73C
:1024F0005EFE012213210020FFF767FEE06940091C
:102500004001E061E0693843E061012217210020C9
:10251000FFF74DFE012217210020FFF756FEB0689D
:1025200040094001B060B0683843B0600022022129
:102530001046FFF73CFE6869400940016861686920
:102540003843686101220D211046FFF730FE012259
:102550000D211046FFF739FEA86840094001A86028
:10256000A8683843A86000220A210120FFF71FFE57
:10257000606A400940016062606A3843606201211C
:1025800000220846FFF713FEF0BD000000C0054022
:10259000002000500022005080800440C0400440D1
:1025A0000246934B92000020D218FF2904D01268F3
:1025B0000A4200D00120704710687047F0B58DB016
:1025C000002414228BA101A80094FFF7CBFD142254
:1025D0008DA106A8FFF7C6FD01AE06AF0125305D4F
:1025E000FF21FFF7DDFF0B90395D284688400B99EE
:1025F0000842284604D10099A0408143009103E09D
:102600000099A04008430090641CE4B2112CE6D36A
:1026100000980DB0B8E7F0B580A003C887B002906D
:10262000039180A003C80027804E04900591777520
:102630007F483C46069004A8015D02A8005D002288
:10264000FFF7C3FDBE2000F01DF9FFF7B7FF0090B4
:102650003220401EFDD1FFF7B1FF01900AE0322089
:102660000091401EFDD1FFF7A9FF7F1CFFB2019032
:10267000062F03D2019900988842F0D10025284600
:10268000062148436B490219895C002924D06A4914
:1026900040180019C11DF9314A78012A0ED00122D3
:1026A000019BAA401A4217D0FF3001226130C2714B
:1026B0004A700020069900F0B2FC1EE00122019B46
:1026C000AA401A4219D1FF3001226130C2710020A4
:1026D0004870069900F0A3FC6D1CEDB2112DCED30D
:1026E00004A8015D02A8005D0122FFF76EFD641CD5
:1026F000E4B2062C9FD307B046E7707D401C70758E
:10270000EAE77047F0B545A003C887B0029003918F
:1027100044A003C8454E059120360490757A04A85C
:10272000415D02A80024405D0122FFF74EFDBE205E
:1027300000F0A8F8FFF742FF00903220401EFDD1C4
:10274000FFF73CFF01900AE032200091401EFDD1CE
:10275000FFF734FF641CE4B20190062C03D2019908
:1027600000988842F0D13248304F00240090062073
:1027700021464143304808184019C11DF9314A78B3
:10278000012A0ED00122019BA2401A4217D0FF302D
:1027900001226130C2714A700020009900F03FFCB4
:1027A00021E00122019BA2401A421CD1FF300122EC
:1027B0006130C27100204870009900F030FC641C48
:1027C000E4B2112CD3D304A8415D02A8405D0122DC
:1027D000FFF7FBFC707A401CC0B2707206288AD3E7
:1027E0000020707287E7787D401C7875E7E700006D
:1027F000002100500101010001010101000001015F
:102800000101010101000000171812071C05020850
:10281000160B0B070006100C090000000101000157
:1028200001010000191314041411000054030010D6
:102830001D0A0010B8A30000340100100F48104911
:10284000807F085C0D4940398871012070470B4832
:102850000B4AC17F807F1154012070470848074907
:10286000401E0078403988710120704703480449B0
:10287000807F491E08700120704700007C12001004
:102880000101001006E00421491E0906090EFBD1D2
:10289000401E80B20028F6D1704700B57D23024665
:1028A000DB0004E01846FFF7EDFF521E92B2002A4B
:1028B000F8D100BD764AD0697649C30704D04B6889
:1028C0005B1C4B6001231362830704D58B685B1C80
:1028D0008B6002231362400702D50868401C086021
:1028E00070476D4AD0696B49C30704D00B695B1C04
:1028F0000B6101231362830704D54B695B1C4B6199
:1029000002231362400702D5C868401CC8607047A4
:10291000F8B5624D6149803540260028486826D0C8
:1029200004221043486028681104084328601420DA
:10293000E8615B48C16949094901C161C169032274
:102940001143C161416B490949014163416B022255
:102950001143416352484038416949094901416185
:10296000416911434161286830432860F8BD01275F
:10297000384348602868F902084328606F61484C72
:10298000803C206A400940012062206A384320626E
:10299000606A400940016062606A38436062606A50
:1029A000082108436062012209210020FFF7FFFB94
:1029B000606A400940016062606A3843606238487A
:1029C00040304169C908C90041610921CAE710B511
:1029D000032307240222002809D02F490C600A6132
:1029E00000208C68401CC0B20828FAD308E02849AF
:1029F0000C600A6100208C68401CC0B20828FAD321
:102A00004A604B6110BDF0B5844600231226204D6C
:102A1000142721480FE06446002C0FD0C4683440CE
:102A2000022CFBD10C788460491CC4683C40042C07
:102A3000FBD184685B1C9342EDD3F0BDEC6834405D
:102A4000022CFBD10C78AC60491CEC683C40042C97
:102A5000FBD1AC68EEE7F0B594460023FF270C4DA0
:102A600014260D4A0AE000280BD09760D468344041
:102A7000042CFBD194680C70491C5B1C6345F2D399
:102A8000F0BDAF60EC683440042CFBD1AC68F2E7D9
:102A90000000044014010010008005400080044044
:102AA0008040044006480047FEE7FEE7FEE7FEE7F9
:102AB000FEE7000003480449024A044B7047000047
:102AC000C120000050190010501D001050190010B6
:102AD000F8B52C4A906B2021884390632A4B00263E
:102AE0001E62304600BF401CC0B2C828FAD3264937
:102AF00001204031086048604E6048604C68E4073F
:102B0000FCD023279F60946B8025AC439463DC68E2
:102B1000E407FCD003240C6348634E6348634C6BAA
:102B2000E407FCD08863946B0125AD02AC43946349
:102B3000946BAD10AC4394638860C860CE60C8608D
:102B4000CA68D207FCD01F615A69D207FCD00E4A6E
:102B5000C0321660166090600B4880300268012415
:102B60002404224302609868084AC006C00E401C34
:102B70005043074C896B07F0B9F82060FFF731FB31
:102B8000F8BD00000082044000800440001BB70034
:102B90002C010010904880789048704790480021A0
:102BA0000180C17001718F4AC16482640165704700
:102BB0008B4910B55C31002005F079FE10BD70B571
:102BC000874C4034228B402A00D94022844D8020FB
:102BD000696D05F038FF696D09186965218B081A60
:102BE000208370BD10B57E4C0020616D05F0BBFEEA
:102BF000616D09186165214640310A8B121A0A83FA
:102C000010BD10B500221146802005F01CFF10BD3C
:102C1000734910B5891D002005F0A5FE10BD10B543
:102C2000802005F0D9FD6E4800214030018310BDA1
:102C3000F8B56B4C00272546264640356036297F7F
:102C4000030000F02AFA08200593B72020C2C42010
:102C5000FFF7AEFF688C2883287F4106890F02D0DA
:102C6000012926D14EE0697F0B0000F016FA0C070F
:102C70000D7C127C161E23292F38487C07F05CF946
:102C800015E0FFF79CFFF8BD002003E0FFF7B9FF58
:102C9000F8BD012007F08CF960E0C006C00E62D1DB
:102CA000A87F80210843E070F0E707F0CDF8002806
:102CB000E7D158E0002005F08FFD00202883F8BD03
:102CC000C006C00E4FD14648001D16E007F0C0F9FF
:102CD000002848D0FFF795FF00F08EF8F8BDC00639
:102CE000C00E01283FD1207900283CD03078A1784F
:102CF000884238D23A49491D40186065C1E707F05B
:102D00004DFA2BE0C006C00E2DD001282BD1687FD4
:102D1000334D0300AD1D00F0C0F90C2407121A2436
:102D2000242424240C171F240120707103F082F93D
:102D3000F8BDFFF73DFFFFF764FF6565F8BDFFF7DE
:102D40007DFD06E065659CE7FFF781FD06E0FFF786
:102D500085FD0028F6D106E0FFF788FD002895D113
:102D600001E0002FEAD1FFF75AFFF8BDC80902D0F1
:102D7000FFF74EFFF8BD288B0028FBD04806800FD8
:102D8000F1D00128EFD1C806C00EECD00128EAD15D
:102D9000687F0928E7D101203071FFF732FF124820
:102DA0006065FFF71FFF0022A0661146802005F036
:102DB0004AFEF8BDC809A1D1E0780106F9D5400660
:102DC000400EE07005F082FCF8BD002000E080209D
:102DD00005F037FDF8BD00005413001032AB0000C1
:102DE0003C120010010001005A07001010B5FFF757
:102DF000D5FE10BD704770474149012008777047E4
:102E00003F49891C4A790B7912021A43022802D0E1
:102E1000032804D1012002430A71100A4871704747
:102E20003749891C4A790B7912021A43022803D0C8
:102E3000032806D1042000E0082002430A71100A8A
:102E40004871704708B50020694608702D482E4922
:102E5000407B800140182D494118032005F083FD77
:102E600000221146832005F0EEFD08BD10B50020BC
:102E7000254A0D239B011118CC18FF31FF31023177
:102E8000401C647880B20C70FF28F4D910BD1C4936
:102E900010B5891C4A790B7912021A43022807D00F
:102EA000032804D1102002430A71100A487110BD92
:102EB000202002430A71100A4871FFF7C3FF11482E
:102EC000134A417B491CC9B2417353780022082B35
:102ED00001D0427310BD0429FCD3427301218173D8
:102EE000FFF7C4FF10BD0648801C41790279090232
:102EF0001143890989010171090A41717047000074
:102F0000FA0900109C1200105A050010410300003D
:102F10009A080010F0B5254EB068254A0007410F09
:102F2000012938D01046031D224C0025C03002294B
:102F300022D0032904D0062909D11068B11518E060
:102F400071699E27C9B2394202D011603068F0BD64
:102F5000C907FCD031688689F1548189491C818177
:102F60002570290A61708189C829F0D3858110688C
:102F7000022108431060F0BD31688689F1548189CF
:102F8000491C81812570290A61708189C829F2D381
:102F900085810220EEE7706920218006002801DA91
:102FA0001160F0BD10688843E4E700000080004035
:102FB0006C1100101B0A001038B50E48016B00910F
:102FC000490715D580690C4C0004800DA060607C19
:102FD000401CC1B26174A268606980186061642994
:102FE00006D3642106F082FEA06100206061607457
:102FF00038BD000000C001402C0A00100378C278E0
:103000001946437812061B0219438378C0781B04C3
:10301000194311430902090A000608437047020ACE
:1030200008704A70020C8A70020ECA7070477047AE
:1030300070477047754600F025F8AE4605006946B2
:103040005346C008C000854618B020B5FFF732FDD2
:1030500060BC00274908B6460026C0C5C0C5C0C52B
:10306000C0C5C0C5C0C5C0C5C0C5403D49008D462E
:10307000704710B50446C046C0462046FFF76BF8BF
:1030800010BD000000487047EC18001001491820DE
:10309000ABBEFEE726000200704730B47446641EE3
:1030A0002578641CAB4200D21D46635D5B00E318CB
:1030B00030BC18470A030A0409040804080308027C
:1030C000080109010A010A0209020903FF0000FFC1
:1030D000FF0000FF0000FFFF0000FFFF00FFFF00F8
:1030E00000FFFF0000FF0000FFFF0000FFFF00FFE8
:1030F000FFFFFF00D70041001B00000000000000A0
:103100005A5A0000FE4800220079012814D1FD48D7
:103110007723017E19400176FF306130C17C194070
:10312000C174F94803238218112080011018827A93
:10313000012199408A4382727047F0B5F34A002119
:1031400011709170F24DD1702971F24869718170DE
:10315000C17041714173C171EF4C1171FE20E07477
:10316000EC48517030308172002023267601E64A07
:103170001318032212029A1811769F19F974117408
:103180001172E64A121891700922D2019A18401C55
:10319000C0B2D1740828EAD30020DB4B1126B60157
:1031A0001A189219401C9177C0B251721528F7D3A2
:1031B00000220B46DA4E0621002051438F193918A0
:1031C000FF2602367354FF2668367354FF31C1312F
:1031D000401CC0B24B730628F1D3521CD2B2112A44
:1031E000E8D3CC49FF204B708B718B720B700E466D
:1031F00023753036F072C548CA4A801D038083703B
:10320000138000201718A037BB704700BF18401C60
:10321000C0B27B805028F5D3C04A338012329370FD
:103220005370D370137053719371D3715372D372FF
:1032300010461373A6388373D381FF27BA4AC37429
:10324000013717801372D37103754375B2486375E4
:103250002038C386C01B0370B0480B73FF2707706C
:103260004370C37283720373B04803708B7393709F
:103270001371AF48F373437106278771C3710372EB
:10328000437283720B740F273777A14E4B742376EA
:10329000603EB366C372FF2606730120C874537381
:1032A0009C480B7550309D4A8370C370423A13702E
:1032B000537000201618B370401CC0B24028F9D3D8
:1032C0004B758B75CB75934A8B6193480B77203286
:1032D000137120304370438003714371C3800372C4
:1032E000537193711372D3718C4E53729372623E09
:1032F00073613377D3726B734B724372837232464E
:10330000C372123A1372AB730B7263760370F0BD23
:103310001CB500200090019072B60F21084605F000
:103320007EFC00280AD10F21084605F065FC002824
:1033300004D10F216A46084605F081FC62B61CBD27
:10334000704770B57B48754C007F0025743C0128A0
:103350000BD1784826462038C078093601280DD090
:10336000257231460020FFF75AFE6C48617B7238A7
:1033700001291AD00573290A417370BD207A0028EB
:10338000F3D13046FFF73AFEFF21F5318842ECD306
:103390000120207231460020FFF741FE5848057099
:1033A00005F054FE05F0CDFEDFE7417B027B08020D
:1033B00010436428E1D9657370BD10B5812005F014
:1033C000EAFB002813D04F4908221831812005F06C
:1033D0003AFB52489238417902790902114381221D
:1033E00091430171090A41714A490020887010BD5A
:1033F0004A4910B50920F4394872822005F0CBFB08
:10340000002813D045491022EB39822005F01BFB20
:10341000424892384179027909021143822291434C
:103420000171090A41713B490020887010BD70B5D7
:10343000064600240220FFF730FA0021324D002E0C
:103440000FD003221202232676012819831880192F
:10345000641C1976E4B2C174082CF6D3FFF7ADFFF3
:1034600070BD1122920128198018641C4172E4B2C7
:103470008177102CF7D3FFF7BBFF70BDF8B5264955
:1034800000202031497A044600295AD12249497D39
:10349000002956D103273F021B4D00262918C919C0
:1034A000097E002901D0012405E0401CC0B2082893
:1034B000F4D3002C0ED000202322520129188B189F
:1034C000C919401CDE74C0B20E761028F6D3012054
:1034D000FFF7ADFF01201122920129188918497ABE
:1034E000002905D1401CC0B21528F6D3002C28D0E5
:1034F0000020291889188E77401C4E72C0B21BE03C
:10350000541300105A0800105A050010080100104A
:103510009C12001018110010540300108E0A0010A5
:10352000340100108C0300108417001030010010CB
:10353000E00B0010540200101528DAD30020FFF72A
:1035400076FFF8BDFEB5FE4C1122E0880090FD48E4
:10355000520182186179FF30FF300230FB4F029236
:1035600001903A4600980D3AF74E55791438DE2905
:1035700028D0DF2925D10099142922D90D2106F060
:10358000BFFB00291DD10098F149401EE0803B4659
:10359000E85D4A5D0D3B90422DD9401FC2B2EA550D
:1035A0005879F02A01D3095CC155E0203077112009
:1035B0007077E120B07702990120487601990020C8
:1035C000C863FEBD00991429FBD90D2106F098FBB4
:1035D0000029F6D10098DE49401CE0800D31E85DFD
:1035E000495D884205D2401DE855E0203077122021
:1035F000DEE7DE2000E0DF20207200206071E08046
:10360000FEBDFEB5CE4C11206288CE4F40016178E0
:103610003818531C9BB200930190CC4BFF371046D7
:103620000D3BFF3714389E79C74D0237D6291CD081
:10363000D72919D1142A17D90D2106F061FB0029C9
:1036400012D100986080C1480D38002E22D0761E1D
:103650008671E020287713206877E120A877019908
:10366000012048760020F863FEBD142AFCD90D2104
:1036700006F046FB0029F7D100986080B3480D386A
:10368000142E05D2761C8671E02028771420E3E7FB
:10369000D62000E0D7202071002060706080FEBD41
:1036A000F1B5AC4DA64C2F462E4621792637323641
:1036B00060883E35D72902D0D62918D029E0FF21CD
:1036C0000531884223D2A27B00998A4221D1502120
:1036D00006F00CFB9A48C07B16E00021C155FF2282
:1036E000825502E00021C1558155415511E0FF216D
:1036F000053188420BD2227B00998A4209D15021A0
:1037000006F0F4FA8E48407B2829EBD3E5E7002049
:1037100020718B48217AC088DE2906D0DF2913D199
:10372000FF210531884213D30FE0FF210531884284
:103730000BD2227C00998A4206D1502106F0D6FA9B
:103740007F48407C0DE04155F8BD00202072F8BD57
:10375000227D00998A42FAD1502106F0C7FA7848B2
:10376000407D282904D30021C155FF228255EAE774
:103770000021C1558155E6E7FFB504467348754EF3
:103780000D38857981B01746012B1ED0022B38D019
:10379000032B53D005B0F0BD385DFF280FD00621B4
:1037A00006F0A4FA06225043674AC6328018401831
:1037B0006030807D1421684306F098FA00E0002014
:1037C00031192031641C8871E4B202988442E3D339
:1037D000E0E7385DFF280ED0062106F087FA0622C2
:1037E0005043594AC63280184018007C142168435F
:1037F00006F07CFA00E0002031192031641C887149
:10380000E4B202988442E4D3C4E7385DFF280FD0C5
:10381000062106F06BFA062250434B4AC632801846
:103820004018C030007F1421684306F05FFA00E0C2
:10383000002031192031641C8871E4B2029884425E
:10384000E3D3A7E770B5002506462C4620460C2199
:1038500048434118C9B2C0B201233246FFF78CFF7A
:103860000C20641C604301460C31C9B2C0B2022373
:103870003246FFF781FF0C20641C604301460C3187
:10388000C9B2C0B203233246FFF776FF641C6D1C39
:10389000EDB2E4B2042DD9D370BDF8B500202021DB
:1038A0002C4D064629706870FF272918401C8F7020
:1038B00080B20E751228F8D3002029182031401C40
:1038C00080B28E719028F8D32348FFF7BBFF1E48C3
:1038D000204CC63080788034012804D1204620381E
:1038E000C775E770E7730120FFF7DAFE00221121A8
:1038F0001046FEF76AFCB62216490120FFF783F84E
:10390000012211210020FEF760FC0020291820313F
:10391000401C80B28E719028F8D30F489030FFF78A
:1039200091FF0948C630C078012804D10948E775DD
:10393000A030C770C7730220FFF7B2FE00220DE06F
:103940007403001034010010DA0900106113001034
:10395000CEA50000A40400101EA4000012211046F1
:10396000FEF733FCB622FD490120FFF74CF8012297
:1039700012210020FEF729FC002029182031401CCC
:1039800080B28E719028F8D3F548FFF75BFF0320D3
:10399000FFF786FE002213211046FEF716FCB62222
:1039A000EE490120FFF72FF8012213210020FEF736
:1039B0000CFCF8BDFFB50446EA48E84F007D81B035
:1039C00001014018E8494618E848012B857923D0C1
:1039D000022B45D0032B68D0DCE60398005DFF285E
:1039E0001ED0062106F082F98319FF3341335B7C38
:1039F0000A46D340D9070DD006214843DA4940187A
:103A000080186030807D1421684306F06FF9391901
:103A100020318871641CE4B202988442DDD3B9E697
:103A20000020F4E70398005DFF281DD0062106F072
:103A30005DF98319FF3341335B7C0A46D340D907D4
:103A40000CD006214843C84940188018007C142136
:103A5000684306F04BF9391920318871641CE4B2CF
:103A600002988442DED395E60020F4E70398005DD7
:103A7000FF281ED0062106F039F98319FF334133A0
:103A80005B7C0A46D340D9070DD006214843B6498E
:103A900040188018C030007F1421684306F026F9D2
:103AA000391920318871641CE4B202988442DDD354
:103AB00070E60020F4E770B5002506462C46204647
:103AC0000C2148434118C9B2C0B201233246FFF766
:103AD00071FF0C20641C604301460C31C9B2C0B2B6
:103AE00002233246FFF766FF0C20641C6043014648
:103AF0000C31C9B2C0B203233246FFF75BFF641C2E
:103B00006D1CEDB2E4B2042DD9D370BDF8B5002020
:103B10002021924D064629706870FF272918401C05
:103B20008F7080B20E751228F8D30020291820312A
:103B3000401C80B28E719028F8D30120FFF7B0FDB1
:103B40008B48FFF7B8FF8848844C80788034012880
:103B500004D120462038C775E770E7730022112191
:103B60001046FEF732FBB6227C490120FEF74BFFE0
:103B7000012211210020FEF728FB00202918203106
:103B8000401C80B28E719028F8D30220FFF788FD88
:103B900073489038FFF78FFF7348C078012804D12D
:103BA0006E48E775A030C770C77300221221104617
:103BB000FEF70BFBB62269490120FEF724FF012224
:103BC00012210020FEF701FB002029182031401CA3
:103BD00080B28E719028F8D36148FFF76CFF032004
:103BE000FFF75EFD002213211046FEF7EEFAB62223
:103BF0005A490120FEF707FF012213210020FEF79A
:103C0000E4FAF8BDFEB559495A4A5A4B4979564D1E
:103C100092695B69554C00200093863D0D34064641
:103C2000554F0B00FFF739FA10091F222A3FB6DF64
:103C3000FAFFF7F6F5F4F398F298095D4D488A42D9
:103C400004D38661BE72042004F028FB4548018835
:103C5000807A02F00AFEB87AFF287DD14348C07905
:103C600002F0C5FC71E14348095D27E1095D414867
:103C70008A4271D3866104F01DFA66E1085D3D4F0A
:103C8000824202D3BE6104F08AF938480A214079A1
:103C9000005D06F02BF8396988425DD803203E614B
:103CA00004F069F851E13448B97A0B3000902F489C
:103CB00004230D30185C002908D04008824232D31A
:103CC0002C488661787A002821D02CE0294F824246
:103CD00004D3BE610121009804F0BAF823480621FC
:103CE0004079005D06F002F83969884202D83E61E9
:103CF00004F0ACF81D481E214079005D05F0F6FF88
:103D000079698842AED803F07FFE7E611DE104F040
:103D1000D8FAF87A401CC0B2F8720F2803D30F20EB
:103D2000F8720120787211481E214079005D05F07B
:103D3000DDFF10494969884206D80E48466103F004
:103D40008AFD009803F01DFF08480F214079005DAF
:103D500005F0CCFF074911E06DE00000A40400105D
:103D60003EA5000084170010A00A00105413001094
:103D70001EA40000481100106C1700100A69904240
:103D800090D80E6104F062F8787A01288AD103F0A5
:103D9000BDFDDAE0FA4F142A0DD3FA48BE61FFF7F1
:103DA0002DF9F8491839C97D4843112105F09EFFC6
:103DB000084603F0FAFCF44839694079005D820056
:103DC0008018814202D33E6103F067FCEE480C216B
:103DD0004079005D05F08AFF796988422BD87E61C1
:103DE00003F0DFFBB1E0E64F095D3869884202D39A
:103DF0003E6103F0A1FAE4480F214079005D05F02F
:103E000075FF7969884216D87E613DE0A0E086E0C2
:103E10005AE03CE025E00FE005E0FFE7085D0F21F8
:103E200003E04E6130E0085D0A2105F05FFF009A73
:103E3000D3499042F5D9FEBD095D0098D04F884224
:103E400002D37E6102F0ABFFCF4805214079005DCF
:103E500005F04CFF39698842EDD83E6102F079FFE8
:103E600073E0095D0098C64F8900884202D37E61E5
:103E700002F0CEFDC44807214079005D05F036FF11
:103E800039698842D7D83E6103F0F7F95DE0BE4852
:103E90008030407A002858D0BB490B230D31595C43
:103EA00001280AD00228C6D1B5488A42C3D3866108
:103EB0000120287003F007FBFEBDB1488A42FBD306
:103EC000866104F0BEF940E0AF494031CA7C0192FE
:103ED0000A7D497D94460091AA4B0C2242438E33C1
:103EE000D718062200214243D6184B00FC180B239A
:103EF000DB01FF22E31801325A857218019B13740B
:103F0000644676239C54C032491C009B89B21377C7
:103F10000629EAD3401C80B21128DDD315E0FF2327
:103F20009627984C062200218E34424316197218A7
:103F300017747624A354C032491C89B2137706291A
:103F4000F5D3401C80B21128EBD301202870FEBDB0
:103F500002F0CEFA8B4809380746FFF74FF88B4D31
:103F600001462C7D874862008E3010180522D20150
:103F70008018C08C0A22504381420BD3394600205E
:103F8000FFF74DF8641CE0B281492875097C88422E
:103F900000D32E75FFF7BAFDFEBD10B5822004F0E8
:103FA000FAFD002822D07748042438380146C4742A
:103FB00009221331822004F046FD72480923163885
:103FC0004179027909021143A1430171090A417142
:103FD0006B4800213038C1716E4A0846DB01141865
:103FE000E418401CC0B2E1740928F8D310BD10B524
:103FF00002200021674A03231B021418E418401C06
:10400000C0B221720828F8D310BD10B5822004F088
:10401000C2FD002818D05A490020303908705E4986
:104020000120087208220831822004F00CFDFFF7FD
:10403000DEFF544816384179027909021143812282
:1040400091430171090A417110BD10B504468120E8
:1040500004F0A1FD002813D008222146812004F09D
:10406000F2FC48481638417902790902114381224D
:1040700091430171090A4171414900203039C872E8
:1040800010BD454800212030017241728172C17219
:10409000017341738173C173704710B5822004F0BE
:1040A0007AFD002825D007203A4A19235B01111810
:1040B000C918401E0C7A00064C72000EF7D1364823
:1040C000042420300146047209220831822004F0C1
:1040D000BAFCFFF7D6FF2B4816384179027909025E
:1040E0001143A1430171090A41712549002030396A
:1040F000487110BD10B5284903200874822004F0CF
:104100004AFD002814D0244908221031822004F0EE
:104110009AFC1C481638417902790902114304229D
:1041200091430171090A41711549002030394870E5
:1041300010BD70B5144C0020E178164A002911D04A
:1041400011239B011118C918401C8D7FC0B28D72BC
:104150000F28F7D3FEF7D6FFE07800281ED0FFF730
:1041600047F970BD23235B0103252D021118CE18DA
:104170004919401CF67CC0B20E760828F6D3E9E750
:1041800048110010120A0010541300108417001078
:10419000E00B00105A0500105A080010FFF70DF947
:1041A00070BD70B50024822004F0F5FC00281ED0FC
:1041B000F7480425C570C11C0922822004F043FC85
:1041C0000020F4490922D2010B199B18641CE4B2A7
:1041D000D870102CF8D3EE4922314A790B791202AB
:1041E0001A43AA430A71120A4A71EB49887470BDD6
:1041F000F0B5E749E1220A71E74B487101229A7450
:10420000E64C8A231E5D022567790300FEF745FF11
:1042100014100B100D111311130F0F111311131193
:10422000111315181810207808E0207906E08F7116
:10423000F0BD8A71F0BD8D71F0BDE0788871F0BD80
:104240008E71F0BD10B5812004F0A5FC002812D0BD
:104250000822D349812004F0F6FBCD482230417971
:10426000027909021143812291430171090A4171C6
:10427000C9490020C87010BDF8B5C74D00273035BA
:104280002F80AF70C7482F810771C74E0324EF708E
:104290002402E878C4494200A23951184988C90B60
:1042A00017D0825D002A14D0BA4902200B181B19BE
:1042B0001B7E934206D1081800190776B6480121E3
:1042C000C17004E0401CC0B20828EFD301E0FFF742
:1042D000B9FFB148C0780128F9D0E878401CC0B2D5
:1042E000E8705028D5D3AB4900200A181219401C99
:1042F000C0B217720828F8D3EF70FFF786FEF8BD3A
:10430000A54A3032D07850280ED3D1880023012915
:1043100006D91089012803D9D370401E108105E009
:10432000002902D09F4843707047D3701380937068
:10433000704730B598499C4A3031C97800208B5C71
:10434000A23A49008A18964980241839BC2B0CD00F
:10435000BD2B12D0BE2B17D0BF2B05D152888A722D
:1043600002205204520ECA7230BD52880120D2433C
:10437000521C0A73120A224304E052880A73012075
:104380005204520E4A7330BD52880220D243521C4E
:104390008A72120A2243E6E7F8B582488249012769
:1043A0000771891E002589782E46002904D17E498F
:1043B000A2390988002917D077487B4C3030C17862
:1043C00002468C46095D12880B46BC3B032B25D860
:1043D0000546002A09D0FFF7ACFFE978491CC9B2AD
:1043E000E970022802D00DE04670F8BD502909D2CC
:1043F000085DBC2801D0BD2804D1FFF79AFFE878FA
:10440000401CE870644C2770FFF7FFFD20780128FE
:10441000FAD0FFF775FF2E80AE70F8BD60464300FE
:104420006148A2381818408843045B0C9A42F4D3C0
:10443000C20B5B481838002A31D00A46B73A0A2A1C
:104440001AD801251300FEF728FE0B07090B0E10E2
:104450004F4F4F4F12144F00477245E0022100E0CA
:104460000421417240E00821FBE71021F9E787733E
:104470003AE0FF21817337E0022003221202454B0C
:104480001B189B181B7E002B04D0401CC0B20828B0
:10449000F5D329E03F4B18188018017624E00A462E
:1044A000B73A112A0ED801251300FEF7F6FD0B07C7
:1044B000070707071D1D1D1D09091D00467213E092
:1044C000867311E0022003221202324B1B189B1844
:1044D0001B7E8B4204D12F4908188018067603E012
:1044E000401CC0B20828F0D338462B4FF870FFF7B5
:1044F000A9FEF8780128FAD0002D01D0FFF785FD3C
:10450000254D3035E878401CC0B2E870502805D3FE
:104510007FE7401CC0B2E8705028F9D8C0B2015DF6
:104520004906F6D075E71F494878002802D00128CF
:1045300008D131E7184A002030325073087900283A
:1045400000D099E6704716480021183881744174EC
:10455000114901204870704710B511490222012409
:104560001839BB283AD008DCA5380300FEF795FDC2
:10457000070E1E232527292B2000BC380300FEF739
:104580008CFD073033362A2427391700B7200EE078
:10459000DA0900105A050010181100105413001009
:1045A00072080010080100102E040010B620487494
:1045B000FD48447010BDCD20F9E7B520F7E7E220B3
:1045C000F5E7EA20F3E7E920F1E78C748A20EEE7CB
:1045D0008C749420EBE78A742320E8E78A74242003
:1045E000E5E78A742520E2E78A742720DFE78A74EA
:1045F0002A20DCE78C748320D9E730B5EB4B02240A
:104600001C725972192199725D21D9722021197376
:10461000612159739873E449DA730120487130BD00
:1046200030B5E24B02241C7207245C729872D97276
:10463000DD481A73817A597300219973D973012166
:10464000417130BD10B5D94A022313720823537249
:10465000192393725D23D372202313736123537341
:104660009073D173D0490120487110BD10B5D04866
:104670004178012903D100214170FFF7FDFD10BDF4
:1046800030B5CA4800252038417A4C086400D32A46
:1046900019D007DCCE3A1300FEF7FFFC050D0F1111
:1046A00019191C00D42A10D0D52A04D0F12A10D010
:1046B000F22A0FD10DE044720CE0FD2200E0FB2253
:1046C0001140417206E0F722FAE7EF22F8E785731E
:1046D00000E0C573B4490120087030BDF8B5B34C93
:1046E0000125203C607AFF2701462943AE4ED32A9C
:1046F00022D007DCCE3A1300FEF7CFFC050D0F11D8
:1047000015171C00D42A19D0D52A19D0F12A0ED099
:10471000F22A0FD10DE061720CE0022100E00421C9
:104720000843607206E0A77304E0A57302E0E57336
:1047300000E0E7733570F8BD0821F1E71021EFE7DD
:1047400061723570FFF761FC30780128FAD035705E
:10475000607A400840006072FFF757FC307801280B
:10476000FAD0607A2843DCE730B40623914C434307
:104770001B195B18FF3301335B78012B01D030BC70
:104780007EE730BCAAE710B502218B4A03231B0247
:104790005418E418247E844207D151180020C91807
:1047A000087681490120C87210BD491CC9B2082988
:1047B000EED310BD10B502217F4A03231B0254180B
:1047C000E418247E002C04D0491CC9B20829F6D371
:1047D00010BD5118C918087673490120C87210BD60
:1047E000F8B50123704C0646A370E03E1F46B74063
:1047F0002324714D0A4664012919CB7C012A05D076
:104800000022072E2CD8BB43CB744AE0072E02D8D7
:104810003B43CB7409E002216A181219D27C002AAA
:1048200007D0491CC9B21029F6D3644A0021105C94
:1048300007E069180919C874F7E70838491CC0B2BD
:10484000C9B20728F9D80E2947D86A181121890159
:10485000511807231B1A8A7F01209840024339E030
:1048600002216B181B19DB7C2E46834205D10022E6
:104870006B181B19DA740A4603E0491CC9B21029E7
:10488000EFD3002A0DD031460F310F1907E00F2A60
:104890000BD0B11809190B7DCB74521CD2B2102A5F
:1048A000F5D3464A0021105C06E00021F974F4E7D4
:1048B0000838491CC0B2C9B20728F9D80E290CD84B
:1048C0006A1811218901511807231B1A8A7F0120B8
:1048D000984082438A77FFF72CFCF8BD10B50C4650
:1048E000C32813D0C42810D10A20FDF7D6FF2146D3
:1048F000E020FFF775FF0A20FDF7CFFF21461920C2
:10490000FFF76EFF0220FDF7C8FF10BD0A20FDF77C
:10491000C4FF2146E020FFF763FF0A20FDF7BDFF3B
:1049200021460620ECE7F0B5A7B000200290252133
:104930002148490141180A911E49CA1DFF32FA3225
:10494000049223225201821808921D4A07920922DA
:1049500092018D181A4A73320592112252018F1852
:104960000921C90144181921490140180690002065
:104970000190029806220F495043099040180B906D
:10498000019940180146FF3161318C46C9790129EE
:1049900018D000206146C8710198401CC0B2019037
:1049A00006287DD20B98EBE7181100107A0800104A
:1049B00008010010340100105A050010B8A20000D0
:1049C000611300100121C61D2970F9367178012983
:1049D0000FD0FF30C130407B009000206246D07184
:1049E000F848007801281ED0F748C07C01281ED066
:1049F0005FE0F54A019B927A012A099A0BD0D318FD
:104A0000F24A9A180523DB01D218927AFF30C1309E
:104A100000924273E1E7D318EC4A9A1817235B011E
:104A2000D218127CF2E703F08BFD27B0F0BD01290C
:104A300039D000200699F12248774A76F2228A7608
:104A40000298C876019808777A7DDF488A77827A5B
:104A5000CA7701214172822004F09DF8002824D0F9
:104A60000699042008760922D949822003F0EBFF39
:104A7000002019235B010146D64A1218D218401CA7
:104A8000C0B211760928F7D3D34A507913790002BE
:104A90001843042398431071000A5071CA4800E07B
:104AA000F0E3417205E00120C4E7C748407A0128DD
:104AB000D1D0019909984018C44903904018E030BA
:104AC000007D411E0F2916D27178012913D1059A54
:104AD000BE4990720F20487104F0A4FEE0202077B8
:104AE00010206077E120A0770120787604990020DB
:104AF000C86312203876B448807D012809D1009817
:104B0000E32802D0E22802D003E0E22000E0E32024
:104B100000900098BB2820D034DCAA287DD024DC6B
:104B20008B2809D010DC8728FBD006DC002872D047
:104B30006428F6D085286FD19FE18828FCD0892889
:104B4000FAD08A28F7D198E1A62866D006DC90280A
:104B5000F2D09128F0D0A528EDD15EE0A7285CD056
:104B6000A8285AD0A928E6D157E0AB380300FEF7B1
:104B700094FA1054FEFDFDFDFDE6FCFB53B87D8864
:104B80009A546553BC380300FEF787FA3D47474700
:104B9000474747474E4E464646464646464646FDEA
:104BA000FDFDFDFDFDFDFDFCFB46FAF9F8F7F6F510
:104BB000F4464646464646464646464646464646E7
:104BC0004646FDFDF3464646F22046007078012831
:104BD00021D10598C07A411E05291CD20599059A54
:104BE000897A491CC9B29172814201D30020907226
:104BF00076480F214171084604F014FEE02020772A
:104C00000F206077E120A0770120787604990020BA
:104C1000C8631320B5E138E225E3707801280098D5
:104C20007BD0FFF790FCC4E37078012804D000210A
:104C30000098FFF753FEBCE30121F9E770780128E3
:104C4000F1D16248C17800290ED00021C170E02066
:104C500020770E206077E120A077012078760499F4
:104C60000020C86311208CE10121EFE77078012852
:104C7000D9D1E87A012802D00120E87299E3002016
:104C8000FBE770780128CED150494879042801D338
:104C9000002000E0401C4871C0B204F0C3FDE020D9
:104CA00020770D2064E170780128BCD1474948790C
:104CB000401CC0B24871062801D30A2801D9062039
:104CC0004871C0B204F0AEFDE02020770C20607780
:104CD000E120A0770120787604990020C86309209C
:104CE0004FE1707801289ED1A87A012816D00120C2
:104CF000A8723A488168490949018160816808229F
:104D000011438160012202210020FDF750FA0022A8
:104D100002211046FDF759FA4BE3A1E20020A872E8
:104D20002E48816849094901816081681022114338
:104D30008160002202211046FDF739FA39E37078CC
:104D400001289BD12148017900291FD00021017140
:104D5000E02020770B206077E120A0770120787693
:104D600004990020C8630FE048E296E010E070E08C
:104D700016E035E0FCE1D3E153E120E149E202E154
:104D8000E4E0A1E182E182E00320FAE00121DEE734
:104D900070780128C0D100980C49AC3808700AE03E
:104DA00070780128B8D109480178042901D004217C
:104DB00000E00121017004F049F904F0C2F901207A
:104DC000DFE0000030010010181100105413001033
:104DD000920800105A050010FC0900100040044021
:104DE0007078012898D1FD48017D002907D0002165
:104DF0000175FB48FB49007804F08FF9D9E20121E5
:104E0000017500200521C901F54A12185218937A3C
:104E10000CAA1354401CC0B26628F5D30020F04AF7
:104E2000172312185B01D3185218401C1B7CC0B208
:104E300093726628F3D300200CA90A5CE8490B188A
:104E4000172149015918401CC0B20A746628F3D3CF
:104E5000AFE27078012805D0E0480021817201742A
:104E600005208EE0DD480121024681723032127F3A
:104E7000032A00D00174042083E070780128009890
:104E800002D0FFF780FC94E2FFF794FC91E2009AD5
:104E900001990298FFF768FC8BE2707801280A9864
:104EA000C07C02D0002848D001E0002807D0FFF7DE
:104EB000DDFB03987178C0B2FFF7C4FB79E2CA4802
:104EC0004078012822D0C548C849807A0128039833
:104ED00000D166300871C548C5490279C0480078DC
:104EE00004F0FEF9C248C1490088C8800881BF4A61
:104EF0000399D1720021D17011809170BD4A904206
:104F000014D1BA4901208872012013E0B748C17A50
:104F1000039881420DD0B148B449807A01280398A2
:104F200000D166300871FFF7A7F9D4E7AF48817266
:104F3000EAE70020AC4948703BE2AC480399C27AEA
:104F40008A4285D1807A0128F3D032E27078012834
:104F500099D1A3494879401CC0B248710D2801D3AA
:104F600000204871C0B204F05DFCE02020770A20E8
:104F70006077E120A0770120787604990020C8634B
:104F80000820387615E27078012885D1944948794F
:104F9000401EC0B24871F02801D30C204871C0B245
:104FA00004F040FCE020207709216177E120A07720
:104FB0000120787604980022C2633976F9E170788E
:104FC0000128B9D186494879002806D0062813D08F
:104FD00009280ED00A2821D111E0CA79012A03D06C
:104FE000032A03D0012202E0032200E00422CA7156
:104FF00007E000228A7204E000220A7301E0002226
:10500000CA7204F00FFCE020207708206077E120CE
:10501000A0770120787604990020C8630A203876AA
:1050200030E07078012887D10B206D4938764879B7
:10503000002806D0062810D0092811D00A2821D12E
:1050400011E0CA79002A03D0022A03D0002202E02C
:10505000022200E00522CA7107E001220A7304E07F
:1050600001228A7201E00122CA7204F0DBFBE02017
:10507000207707206077E120A077012078760499D7
:105080000020C86355490020087492E17078012817
:105090001DD10398584940000A5C40182A73407893
:1050A0004F4968738879401CC0B28871142803D3B3
:1050B00014208871D62002E0D62068700020287164
:1050C000E0202077062021E07078012802D000201F
:1050D00068706EE10398484B4000195CA973C018D2
:1050E00040783F49E8738879401E0006000E8871B9
:1050F00001D0F02803D300208871D72002E0D72008
:10510000687000202871E020207705206077E1207A
:10511000A0770120787604990020C863688048E170
:105120007078012827D10398334A4000115C297414
:10513000801840782A49687448790D281DD20B469A
:105140000799079A415C491DC9B281542A4A587986
:105150000D3A125C914203D307994254DE2002E0DB
:10516000DE20687100202872E020207704202BE0E8
:105170007078012802D0002068711AE103981E4956
:1051800040000A5C40182A754078154968754879CE
:105190000D2822D20799415C491FCAB2079942548F
:1051A0000F48417914481A38405C824201D9F02AEC
:1051B00003D9079A8854DF2002E0DF2068710020BD
:1051C0002872E020207703206077E120A07701207B
:1051D000787604990020C863E880EAE0181100108E
:1051E00054130010DE1500100801001048110010C3
:1051F0008C030010FFFF0000E8A500007078012874
:1052000005D0002201990298FFF70AFAD1E00122A5
:10521000F8E77078012822D1F84900204872F8494F
:105220004879401CC0B24871042801D90020487157
:10523000F348407904F0F6FAF04801214172E02089
:10524000207702206077E120A0777976049900200A
:10525000C863EB48042142790078FFF7CEF9A8E053
:10526000FFF77AF9A5E0707800280CD0E549002016
:105270000880E348C078002867D0E34B00980021FD
:10528000185C85E0D3E0DF4900200880DC48C07866
:10529000002804D0DC4B00980021185C41E000207D
:1052A00084460098E038072805D80899CA7C01216F
:1052B00081408A4352E0D54A0220D4490B18232169
:1052C00049015918CB7C00998B4207D1131823222E
:1052D000002152019A18D174844603E0401CC0B2E8
:1052E0001028EAD3604600282BD0C84B2322194649
:1052F0000F31520189188C4609E00F280AD023216A
:105300001A18490151180A7D401CCA74C0B21028ED
:10531000F3D316E000226146F6E70838491CC0B214
:10532000C9B20728F9D80E2943D8B84A072352181A
:105330001121890151181B1A8A7F0120984082434C
:1053400035E0B3490120887033E00098E038072841
:1053500007D80899CA7C012181400A430898C27481
:10536000EFE702202321A94A490113185B18DB7CCF
:10537000002B04D0401CC0B21028F6D3E1E710186F
:105380004018009BC374DCE70838491CC0B2C9B29E
:105390000728F9D80E290CD89C4A07235218112146
:1053A000890151181B1A8A7F0120984002438A778D
:1053B000C7E798490398085C002801D1FFF7ECFA89
:1053C0008F4872784079012A06D007281CD0082817
:1053D0001FD00B28F2D121E0801F0300FDF75DFEF6
:1053E000060514190A0F1E04E8E70199029801F056
:1053F000E0FEE3E70199029801F03EFCDEE7019947
:10540000029801F0D4FBD9E70199029801F016FE49
:10541000D4E70199029801F0A1FDCFE70598407A01
:105420000228CBD10199029801F0EDFDC6E7029860
:10543000401CC0B20290112801D2FFF798FA27B0A1
:10544000F0BDFEB5744A0192002418320646734D31
:105450002046009208292CD2E20019235B0107E0C4
:105460001418375D694C2418E418401C677680B224
:105470008842F5D3664C01206071822003F08BFBDB
:10548000002812D00198042606760922822000996D
:1054900003F0D9FA6879297900020843B0432871EA
:1054A000000A687100206071FEBD60790128E4D0B7
:1054B000FEBDC808401C02902FE00021E200192325
:1054C0005B015018375C51484018C018491C89B21C
:1054D00047760829F5D34E4F01207871822003F0DA
:1054E0005AFB002813D00199042008760922822053
:1054F000009903F0A8FA6879297900020843042189
:1055000088432871000A68710020787102E0787978
:105510000128E3D0641C0298A4B2A042CDD8FEBDFD
:10552000F8B52520394D374F40012818BF1FB978ED
:10553000FF35FF26427B8139FF3500243336007B5F
:1055400002350B00FDF7A9FD0C070A14191E1111F5
:1055500044494F556E110221294804E0294603F0C1
:10556000E6FD8B2132E0FFF76CFF0020B870F8BD3C
:10557000294603F0D2FDCC2128E0294603F002FEA3
:10558000314623E01E482649007803F0A9FE244E48
:105590003088010A00D0012129701C4A687060001F
:1055A0002018801CC1B26000801951184088FF315A
:1055B000FF31030A02310B7048703019A030641CAF
:1055C0008078A4B28870502CE9D3F2212846CAE72B
:1055D0000E4903F048FE31462DE00C4903F05AFE17
:1055E000FF217E3127E0094903F06CFEFF214431A1
:1055F00021E0064903F087FD03211CE08417001019
:10560000541300100E010010B8A200005A0500103B
:1056100018110010B8A300007A080010FC0900104F
:105620008C030010032189034843FD494018FD49BC
:1056300003F08EFE6621FB4895E7F0B5FA4989B084
:10564000F820FA4C087560784875A7788F75E3786C
:105650000A46CB7520320492177301975373039354
:10566000227902926279460607920025760EED4A6B
:10567000092E7DD011DCEE4B0093EC4B9B785B1E2A
:105680000693EC4B1B7805933300FDF706FD098C60
:105690009FADC5D7F1F0EFEE8C00152E0ED006DCD5
:1056A0000A2E66D00B2E7DD00C2E7CD11CE2202E33
:1056B0007AD0302E79D0352EF7D13BE2000672D465
:1056C000DD49F8200874DB4805218030C1720021D3
:1056D000817203F0CCFA23235B01D34A0621002018
:1056E0006943C6328F1839180126B602FF228E1977
:1056F0007274CE18F2751326B6018919401C80B257
:105700004A770628EFD36D1CADB2112DE5D30122E7
:10571000CA49104603F09DFD0527C34E0021FF0135
:105720006423FF25C6360020020182189219521800
:10573000FF324132401C80B255740628F4D3480031
:105740008019C019491C89B2C3841129EBD3BC4804
:1057500002210174014601221031104603F090FD30
:105760000021B14B01250020AD02C6335A1801E0DB
:1057700040E17CE15219944606224A43D7183A1870
:105780000B25AD0100235519AB730B1819261D46C7
:1057900076010A35961935750725ED01521993766C
:1057A000FF2203E08CE1DAE1DAE1B6E1401C634676
:1057B00080B21A700628E2D3491C89B21129D0D3CD
:1057C0000122A049104603F073FDCFE1000609D481
:1057D00005999848B942F8D0077003F037FC03F0F8
:1057E000B0FCC3E1812195E1000613D4069804289A
:1057F000EBD2E020087701204877E120887738460F
:10580000009903F059FB8B4D2878A91C03F08FFCFD
:10581000687950E182217DE100060DD406980428C4
:10582000D3D23846009903F035FB8248824900788C
:105830000A3103F072FC99E183216BE1000646D442
:105840000398002802D0012813D08FE1794950191C
:10585000FF30FF30023003794819FF3041306D1CB2
:10586000ADB28377CC2DF2D380E1A1E05BE057E0CD
:105870002FE06D4906222F460020C6315743791884
:105880008C466C493B185A18FF215F318E5C61468B
:105890000918FF320E74C132167976225654614AC5
:1058A000C0319A18FF32FF320232401C127980B2A6
:1058B0000A770628E5D36D1CADB2112DD9D35A490C
:1058C0000198D63103F0AFFA5A484079F3E08421C9
:1058D00020E1000622D402980102079808185A49CC
:1058E000088068002818801C80B21018FF30FF3034
:1058F0000230037946791B029B196E00761873807B
:105900004B19A0336D1C8079ADB29870502DE8D33F
:105910004D49039A059803F0F2FC27E18521F9E04F
:105920004A48C77422E10398002802D0012811D008
:105930001CE140485119FF31FF3102310B79411907
:10594000FF3141316D1CADB28B77CC2DF2D32021CC
:1059500041710BE1344906222F460020C6315743DE
:1059600079188C4633493B185A18FF215F318E5CF9
:1059700061460918FF320E74C132167976225654E8
:10598000284AC0319A18FF32FF320232401C127985
:1059900080B20A770628E5D36D1CADB2112DD9D39C
:1059A00024480E2141712049012040310870DDE07A
:1059B00000061DD4029800280FD0501924496D1CF0
:1059C000095CE030ADB2C176FB2DF6D30498E278E5
:1059D000007B144903F03DFC5DE05019FF30FF30BF
:1059E0000230407950556D1CADB2FB2DF5D3BDE0B2
:1059F00088218FE0000638D4029800282AD0501958
:105A000013496D1C095CE030ADB2C176FB2DF6D3B5
:105A10000498E278007B034903F032FC3BE000008D
:105A200003D0FFFF5A050010DA0900105A070010D2
:105A30005E07001054130010D4150010B10E0010B2
:105A4000E00B00106E0D00108C03001018110010F8
:105A5000050200005019FF30FF30023040795055E8
:105A60006D1CADB2FB2DF5D380E0892152E000061C
:105A700024D40298002813D05019FA496D1C095CEF
:105A8000E030ADB2C176FB2DF6D30498E278007B0E
:105A9000F54903F00DFCF54840790F280BD065E07F
:105AA0005019FF30FF300230407950556D1CADB2B7
:105AB000FB2DF5D35AE003F0B5FE57E08A2129E02B
:105AC00000060FD4E9490298E03148740798A1799B
:105AD00000024018E549C0314886E5490020FDF73D
:105AE0009EFA43E08B2115E0000612D4DF485119DD
:105AF000FF31FF3102310B794119E0316D1CADB23C
:105B00000B75662DF3D3D949E8B2F13103F079F979
:105B10002CE08C21D748817028E02078082801D01B
:105B2000072823D1002F21D1002B1FD1FDF7F0FB37
:105B300000F0FBFA0021192676010020CD00A378A1
:105B40001B021B185B191B781718BF19401C80B269
:105B50003B720828F3D3491CC9B22029EDD305E0D4
:105B6000A0200876002048760120887660780728F3
:105B700001D0012000E00020BF49C87109B0F0BD8C
:105B800070B5BB4AF820433ABC4C10756378537526
:105B9000A0789075E178D1752032107351735A0650
:105BA000520E012A02D0302A19D10FE0190609D469
:105BB000AE490A78824212D0087003F047FA03F027
:105BC000C0FA0CE0AB498120887008E02278082AEE
:105BD00001D0072A03D1002801D1002905D061781E
:105BE000A548072905D0012104E0FDF791FB00F04D
:105BF0009CFA0021C17170BDF8B5844600231520C0
:105C000080011E469A4C06210022833459430F1905
:105C1000B9180C18E478012C11D0FF250E747624E5
:105C20006554C031521CD2B20E77062AF0D35B1CE9
:105C3000DBB2112BE6D30020FDF72FFEF8BD644642
:105C40000C7476246654ECE7F8B5894F002183374D
:105C50001525AD010E4606224A43894B0020D41972
:105C6000D31822185219D6701A18FF320132401C6C
:105C7000C0B256700628F4D3491CC9B21129EAD320
:105C8000804C00276772FCF7C6FC7F1CFFB2062F12
:105C9000F8D30021764D06224A4383355519AC4688
:105CA000774D002057193A18FF3201325578012DEF
:105CB00006D165462E1815250123AD017519EB7027
:105CC0000025401CC0B255700628ECD3491CC9B24F
:105CD0001129DFD30220FCF7E0FD00266672FCF7F5
:105CE00011FD761CF6B2062EF8D30021604D062277
:105CF0004A4383355519AC46614D002057193A186F
:105D0000FF3201325578002D06D165462E18152533
:105D10000123AD017519EB700025401CC0B2557010
:105D20000628ECD3491CC9B21129DFD30220FCF7A5
:105D3000B4FD00266672FCF76EFC761CF6B2062EE9
:105D4000F8D315260021B6010123494C06228334DD
:105D50004A434B4D0020141955192A18FF320132BD
:105D60005778012F02D12718BF19FB700027401C5C
:105D7000C0B257700628F0D3491CC9B21129E4D328
:105D80003A4914208871FF20FFF736FFC820FCF73E
:105D900084FD0020FFF730FFC820FCF77EFDFF20C8
:105DA000FFF72AFFC820FCF778FD0020FFF724FF4B
:105DB000C820FCF772FDFF20FFF71EFFC820FCF78C
:105DC0006CFD03F018FD0021012003F02CFC0220E3
:105DD000FCF763FD0021022003F025FC0220FCF704
:105DE0005CFD0021032003F01EFC0220FCF755FDA2
:105DF000F8BD012109070024C81386B0421108C864
:105E000008C1521E1204120CF9D11F49012008606A
:105E1000FDF793F9FCF75CFEFF209130FCF73DFDA8
:105E200003F0F6FB0220FCF738FD03F069FB0220CB
:105E3000FCF733FD002003F034FFFFF705FFFDF70B
:105E40007CF90B4D0027233D2F771420FCF725FD0F
:105E500002F0F8FBFDF747F8C820FCF71EFD0B4EDB
:105E60001CE00000050200005A0500105413001049
:105E70001D0A001008010010181100105A07001028
:105E800034010010740300100080044070170000FB
:105E9000641CB44205D80120FCF7FFFC287F0028D1
:105EA000F6D0A64803900772FCF72BFC03F049F9E3
:105EB00000F0C1F9A34802900921A34889014118C3
:105EC00000911121490144189C489D4E08380190C9
:105ED0000198FDF793F8A97B401C401804910199A3
:105EE000FDF79DF8E87D04994843401CE87530793A
:105EF000012807D192486038806E012822D0FFF730
:105F00003FFE3771B07B002804D0FFF796FBFFF708
:105F100007FBB773207D142802D3FCF77CFB2775A1
:105F2000FEF701FDFEF7FFFA207E002802D0FEF703
:105F30005FF92776607E00281CD000980078012841
:105F40000ED012E081487D4900788631C207D20F19
:105F50004A708207D20F40078A70C00FC870D0E71E
:105F60007B490878891C02F0A7FF677600980770C4
:105F70007848C76373482038807C012801D1FEF738
:105F800010F9704820388078012809D10298017BE7
:105F90006F488078814203D302980773FEF7C9F8EF
:105FA000684820384078012801D1FEF7A3F86548F9
:105FB00020384079012801D1FEF76FF86148203878
:105FC000C07A012802D16448FEF73FF85D482038C6
:105FD0000078012801D1FEF718F85A482038C07916
:105FE000012801D1FDF7D9FF0098C07A002801D11E
:105FF000FDF708FE5948007800280CD10398007876
:10600000002808D0524840790F2804D00020FDF71E
:1060100044FC03980770FDF7F4FAFDF793FAFDF7D7
:106020002DFAFDF78EF9287F012800D050E74B4864
:1060300000784DE7FEB545490720087048483F4DB8
:10604000C7784F70203D2A7B8A703D486E7BCE70AA
:1060500040232038038340384165081D01900C20FF
:106060005043000300903C2046433948813F0024C0
:1060700000783B00FDF711F805041114561D560079
:1060800088703020C87008713648314AC37A4B7125
:10609000407988711079C87144E03349009801E073
:1060A000324900983C2240188019019903F050F9B8
:1060B00038E0274E2E4903F013F92D4F3988080A8E
:1060C00001D0012200E000222A488277C1776000D7
:1060D00061002018C919801C4A88C0B231180846CE
:1060E000FF30130A41308377C2773819A030FF316F
:1060F0006131641C8078A4B20870502CE7D31E492B
:1061000000206A7B3C235A4312189219FF32413215
:10611000937F0A18FF32FF320232401C80B21371A3
:106120003C28EED3FCF74BFDFEBDBFF34F8F144967
:106130001248C860BFF34F8FFEE700001A0A001034
:106140009C12001038110010340100105A07001082
:1061500054130010340300107208001030010010B6
:1061600008010010E00B001000E0FFFF0050FFFFEF
:106170008C030010941400105A0500100400FA0556
:1061800000ED00E070B5F94DF94CA869213C401CC8
:10619000A8612869401C28616869401C6861F4484E
:1061A0004178027809021143491C0170090A4170C3
:1061B000F0490120C872E07D401CE075EE48017B8B
:1061C000491C0173ED48017D491C0175A07B09281C
:1061D00002D2401CA07370BDE54808300646FCF7AB
:1061E0000DFF3146401CFCF71AFF0020A073E24C63
:1061F000203C206A401C20622888401C2880DC4803
:1062000012380646FCF7FAFE3146401CFCF707FF41
:10621000E88B401CE883A069401CA061D74820306F
:106220004188491C4180C188491CC1804038C16BEC
:10623000491CC16370BD70B50124D148E4070460F6
:10624000D0487D21C900006803F050FDCE49884246
:1062500001D9012010E00102090ACC48491E416120
:10626000CB490723CA691202120A05042A43CA61EC
:106270000021816103610846002800D0FEE7C04884
:106280008038046070BDF0B50021152292010B2703
:106290000B46FF010624BF4E4C430C250020A419D9
:1062A0004D43AE192518AD18EB7045007519ED1961
:1062B000401CC0B26B850628F4D3491CC9B2112911
:1062C000E8D30020B44BFF221A54191870246254EA
:1062D000E031401CC0B20A706628F5D3F0BD06223A
:1062E0005043AC4A80184018012189024118497C6A
:1062F0000174232149014118CA7D76210A541321D2
:1063000089014118497FC03001777047FEB50623E7
:1063100058434318A04C0293E55C9E4B0195C0186E
:106320004018074660370146047CBB7DC0310091B0
:106330000022097F062D26D26E00AD19974EAC467D
:10634000755DAC4201D9641E02E0AC4202D2641C0D
:10635000047400E00122604684196078834201D908
:106360005B1E02E0834202D25B1CBB7500E0521C44
:10637000A07828E0491E009803E0814226D20098C8
:10638000491C017723E00125AD0245196D7CAC4223
:1063900001D9641E02E0AC4202D2641C047400E025
:1063A0000122232464010419E47DA34201D95B1E68
:1063B00002E0A34202D25B1CBB7500E0521C132317
:1063C0009B01C018407F8142D7D9D3E7521C032AD2
:1063D0000AD301987049401CC0B2029A062888541A
:1063E00002D9029800220A54FEBDF8B506220C27F5
:1063F000054642437D435218674B664F9446D21878
:10640000ED1913464F00EF1960330B251E7CE03267
:10641000ED0114787D19002E06D0641E24065E4E10
:10642000240E147008D012E0641CE4B21470FF2C27
:106430000DD301241C740AE000241C746346F45438
:106440006B8D5B1C9BB26B85072B00D36C85514B0E
:106450001C1801239B02E3181B780624CB406043E1
:106460004C4CDB0700194418274626466037C036D7
:10647000002B24D0688D410041184948405C1178B8
:1064800000914843FF2103F031FC2074688D4100E6
:10649000411843480818407800994843FF2103F009
:1064A00025FCB875688D410041183D480818807872
:1064B00000994843FF2103F019FC3077F8BD012013
:1064C00080022018407C1578FF21684303F00EFC01
:1064D0002074232040012018C07DFF21684303F071
:1064E00005FCB875132080012018407F6843E1E760
:1064F000F8B50025284E2F4600242A48254A007D5D
:106500000101401880184019FF304130407CE040C4
:10651000C00712D006216943881802190B20800198
:106520001018807B002811D0012840D0022859D0B3
:10653000177476208754C0321777641CE4B2062C97
:10654000DBD36D1CEDB2112DD6D3F8BD1520800123
:10655000101819235B01D218C178127D914223D300
:10656000C77021462846FFF7D1FEE6E74811001024
:106570001B0A00108E0A001038110010540300107E
:1065800080E100E02C010010FFFFFF0000E000E0D0
:1065900004ED00E0A00A00109C170010CC300000B1
:1065A000DE30000084170010491CC170C5E70723C6
:1065B000DB010919D318705C9B7E98420FD315201C
:1065C0008001101819235B01D218C178127D914205
:1065D000EAD3C77021462846FFF707FFADE7401C06
:1065E0007054AAE721462846FFF779FEA5E7F0B5E3
:1065F0000021FE4AFE4C0300FCF74FFD06042D511E
:10660000799DE82C00200301C3185B185D00F94B4D
:106610005B5BF94DAB4215D01F0ADDB2BC461123BE
:106620005B1A06279B187D431E46203E2D19F67FD8
:1066300065442E742726F65C76277E554033DB7B37
:10664000C0352B77401CC0B20628DCD3491CC9B228
:106650001129D7D3F0BD00200301C3185B185D00DA
:10666000E44B5B5BE44DAB4210D0DDB206277D43CB
:106670001B0A2D19EB18565C1E7455182826765DDA
:106680007627FE5440352D7CC0331D77401CC0B2A8
:106690000628E1D3491CC9B21129DCD3F0BD002082
:1066A0000301C3185B185D00D24B5B5BD24DAB425C
:1066B00014D0DDB2062705267D43361A1B0AB446E0
:1066C0002D19965DEB181E746646B5182826765D62
:1066D0007627FE5440352D7CC0331D77401CC0B258
:1066E0000628DDD3491CC9B21129D8D3F0BD00203A
:1066F0000301C3185B185D00BE4B5B5BBE4DAB4234
:1067000010D0DDB206277D431B0A2D19EB18165C4D
:106710001E7415182826765D7627FE5440352D7C8C
:10672000C0331D77401CC0B20628E1D3491CC9B252
:106730001129DCD3F0BD00200301C3185B185D00F4
:10674000AC4B5B5BAC4DAB4210D0DDB206277D435A
:106750001B0A2D19EB18565C1E7455182826765DF9
:106760007627FE5440352D7CC0331D77401CC0B2C7
:106770000628E1D3491CC9B20829DCD3082100202E
:106780000301C3185B185D009A4B5B5B9A4DAB42EB
:1067900013D01F0ADDB2BC46062710237D435B1AC7
:1067A000D65C2D1965442E749B182826F65C762736
:1067B0007E5540331B7CC0352B77401CC0B2062869
:1067C000DED3491CC9B21129D9D3F0BD0020030181
:1067D000C3185B185D00874B5B5B874DAB4214D0E1
:1067E000DDB2062707267D43761A1B0AB4462D190B
:1067F000965DEB181E746646B5182826765D7627DA
:10680000FE5440352D7CC0331D77401CC0B2062895
:10681000DDD3491CC9B20829D8D3082100200301BF
:10682000C3185B185D00734B5B5B734DAB4213D0B9
:106830001F0ADDB2BC46062753187D431E46203E84
:106840002D19367E65442E742026F65C76277E55FB
:1068500040331B7AC0352B77401CC0B20628DED3EC
:10686000491CC9B21129D9D3F0BDF0B55F48002346
:10687000C030817AFF297DD0817A027A8E46511804
:10688000CAB201E0113AD2B2112AFBD2511CCCB2E9
:1068900001E0113CE4B2112CFBD2417A032911D062
:1068A000564EB518341956225626525D365DB24200
:1068B00010D9961B4F1C7E43F717BF0FBE19B61099
:1068C000921B11E04D4956220919525C6031CE7974
:1068D0000C7E3EE0B24208D2B61A4F1C7E43F71738
:1068E000BF0FBE19B6109219D2B260346035A446FB
:1068F000EE79E479A64208D9341B4F1C7C43E71794
:10690000BF0F3C19A410341B09E0A64208D2A41BF7
:106910004F1C7C43E717BF0F3C19A4103419E6B293
:106920002C7E65462D7EAC4208D9651B491C4D4323
:10693000E917890F49198910611A09E0AC4208D298
:106940002D1B491C4D43E917890F491989106118FE
:10695000CCB2264D71466A54827A29462831565463
:10696000827A28315454817A491CC9B28172112922
:1069700004D300E007E0FF218172C1725B1C9BB26F
:10698000112B00D278E7F0BD0301C01870B5401894
:1069900041001848405A1849884232D0C1B2030A0F
:1069A00001E0283AD2B2282AFBD20620104C0F4E22
:1069B00048430019B55CC0180574B2182825AE5CB0
:1069C00076252E544032157CDC2215540C25694363
:1069D00009195B00C9180B23FF22DB010132C9181A
:1069E0004A85152202219201801809E0AC16001098
:1069F000A00A001076A80000FFFF0000541300104A
:106A0000C17070BD062802D2112900D2BCE77047C0
:106A1000F0B5FF4F0024385DFF287DD0002807D156
:106A200038197021095CE030E2B20078FFF7ACFF62
:106A3000385D012831D13D192E46E0352878603681
:106A4000401EE2B2317CC0B2FFF7DCFF2878E2B230
:106A5000401C317CC0B2FFF7D5FF307CE2B2401C55
:106A6000C1B22878FFF7CEFF307CE2B2401EC1B23F
:106A70002878FFF7C7FF307CE2B2401CC1B228780B
:106A8000401EC0B2FFF7BEFF307CE2B2401EC1B272
:106A90002878401CC0B2FFF7B5FF385D022872D1DC
:106AA0003D192E466036307CE035401EC1B2287854
:106AB000E2B2801EC0B2FFF7A5FF2878E2B2801EC6
:106AC000317CC0B2FFF79EFF307CE2B2401CC1B205
:106AD0002878801EC0B2FFF795FF307CE2B2801E9E
:106AE000C1B22878401EC0B2FFF78CFF307CE2B202
:106AF000401EC1B22878401EC0B2FFF783FF307C31
:106B0000E2B2801CC1B22878401EC0B2FFF77AFF03
:106B1000307CE2B2801E00E043E0C1B22878FFF78B
:106B200071FF307CE2B2801CC1B22878FFF76AFFA7
:106B3000307CE2B2401CC1B22878401CC0B2FFF7E2
:106B400061FF307CE2B2801EC1B22878401CC0B226
:106B5000FFF758FF307CE2B2401EC1B22878801C9B
:106B6000C0B2FFF74FFF2878E2B2801C317CC0B280
:106B7000FFF748FF307CE2B2401CC1B22878801C8D
:106B8000C0B2FFF73FFFA348C07A0028385D01D0AC
:106B9000401E05E0401CC0B23855032801D3FF2039
:106BA0003855641CA4B2662C00D234E7F0BD70B531
:106BB000974A0024135DFF2B04D0641CE4B2662CBA
:106BC000F8D370BD06235843401841009248405AFC
:106BD0009249884205D0111970235854000AE031B7
:106BE0000870254601E0283DEDB2282DFBD28948EA
:106BF0000023C07A00281FD0022010558548884EF7
:106C000020308078002819D08648FCF7F7F98549AC
:106C1000241D1839C97D282348436043C0B2410070
:106C2000401881490A5C411872554A7870191A5403
:106C300089784030017470BD1355DFE77849754895
:106C4000C0310A7A4030002A0AD0827B725572190C
:106C5000047C2825AC54807C403210740B7270BDCB
:106C6000427B7255C37B72192824A354407C403266
:106C700010740120087270BD70B5654A0024135D60
:106C8000FF2B04D0641CE4B2662CF8D370BD06233D
:106C90005843401841006048405A6049884205D036
:106CA000111970235854000AE0310870254601E09C
:106CB000283DEDB2282DFBD256480023807A0028CB
:106CC00006D010196030007C0B2803D3401D03E070
:106CD000135502E01B21081A10554E48504E203023
:106CE0004078002817D04F48FCF788F94D49241DFB
:106CF0001839C97D282348436043C0B24100401879
:106D000049490A5C411872554A7870191A548978B1
:106D10004030017470BD42493E48C0310A7A40306B
:106D2000002A0AD0027A72557219847A2825AC5446
:106D3000007B403210740B7270BDC2797255437A79
:106D400072192824A354C07A4032107401200872AA
:106D500070BDF0B500210B26344DF6010C22002049
:106D60004A4354194200A21893195A8D002A0DD093
:106D7000921E1204120C5A8508D106234B435B194C
:106D80001B181A747627FA54C0331A77401CC0B205
:106D90000628E7D3491CC9B21129DFD3F0BDF8B5E5
:106DA00000241B4E305DFF287DD035192F466037FB
:106DB000397C0A18322A0AD30A1AD2B2322A06D3E6
:106DC0003146FF220819E03002700A55F8BDE0355F
:106DD0002A78824204D3101AC0B2E2B2FFF7D4FD7F
:106DE0002878315D4018C0B2062803D2E2B2397C5F
:106DF000FFF7CAFD387C315D884221D3401AC0B20A
:106E00008446E2B228786146FFF7BEFD28780FE09D
:106E10009C170010541300101AA70000FFFF000079
:106E2000AC160010120A001042A90000A00A0010BF
:106E3000401C062804D2E2B2C0B26146FFF7A4FDAE
:106E4000F948397C005D0818C6B2112E0DD2E2B2A5
:106E500028783146FFF798FD2878401C062804D290
:106E6000E2B2C0B23146FFF78FFDEF48005D022865
:106E700061D301265BE0397C8919814227D3081A46
:106E8000C0B20090297870008446081A401CC0B235
:106E9000E2B20099FFF7B6FD29786046081AC0B241
:106EA000E2B2009900E04EE0FFF7ACFD29786046C1
:106EB000401C0818C0B2E2B20099FFF7A3FD297880
:106EC00060460818C0B2E2B20099FFF79BFDD648B1
:106ED000397C005D0818801B112824DAC0B20090AC
:106EE000297870008446081A401CC0B2E2B20099AA
:106EF000FFF788FD29786046081AC0B2E2B200990F
:106F0000FFF780FD29786046401C0818C0B2E2B245
:106F10000099FFF777FD297860460818C0B2E2B201
:106F20000099FFF76FFD062E05D2761CB6B2BE495A
:106F3000085DB0429FD8BD48807A002809D0BA4881
:106F4000015D491E0155641CA4B2662C00D228E7DD
:106F5000F8BDB549085D401C0855F4E7F8B504468E
:106F6000B2480E462030154601782046062250438E
:106F7000012911D0AE49AF4B40188019FF300C21C8
:106F8000013061434278C9180B207300C001C91851
:106F90000918012A0FD016E0A748611DC07D48439B
:106FA000162102F0A3FE48000818A4490A5C401804
:106FB0004178837810E0A248C27A002A19D00022D2
:106FC000C272D0B24885488D9849984B4131425C95
:106FD000891C4533415CC35C062044439548152712
:106FE0002018BF018019C419012D04D00220E070BF
:106FF000F8BD0122E4E70325E570027476221154FE
:10700000C0300377F8BD70B506234343894D0C2685
:107010005B195B187043152440194900A4014018FE
:107020001B190B21FF24C90101344018012A03D088
:107030000221D970448570BD0321FAE7FEB57A4B71
:1070400015467A4A1F46D27FE03300930623434316
:107050007C4E5918490000246037765A012A02D024
:10706000012D4BD00FE07449801CCA7D162150437E
:1070700002F03CFE4800081870490B5C401841784B
:107080008078012D46D0704DAE4236D0F0B23874C3
:107090008446300A00996D4B08700221020186185F
:1070A00030194000185AA8420AD0C2B206277A43C3
:1070B000604F000AD2191218152080011018C170F3
:1070C000641CE4B2112CEBD300205A4D1527BF01EC
:1070D000020184186246A21852009A5A5A4CA242DF
:1070E00007D0D4B206267443120A6419A218D21922
:1070F000D170401CC0B20628EAD3FEBD50494B48AF
:10710000CA7A2030002A4ED00022CA72037F817FC3
:10711000203000784C4A9642EFD0F2B23A74019295
:10712000320A009D03262A701501521994466246C0
:1071300012195500454A525B434DAA420FD0D5B2B1
:1071400006277D433B4F120AED19AA181525AD01FC
:107150005519EE7013747625A954C0321077641C4B
:10716000E4B2112CE3D3002214011519019C2C194F
:107170006500364C645B344DAC420FD0E5B2062757
:107180007D432C4F240AED192C191525AD016519E5
:10719000EE70237476252955C0342077521CD2B264
:1071A000062AE1D3FEBD0122CA72C37E417FC07FA1
:1071B000B0E7F8B51C4D00242A5DFF2A04D0641CFA
:1071C000E4B2662CF8D3F8BD0622504340184100C3
:1071D0001C48405A1C49884205D029197022505435
:1071E000000AE0310870114E0027B07F00282FD030
:1071F00011481830FBF702FF0F49C97D48431121A0
:1072000002F074FDC9002819E030027811430170C2
:10721000307B00282FD028196030007C082801D24C
:107220001121081A2855F8BD9C170010541300109E
:1072300034010010A00A0010FA09001042A9000051
:107240006C1700101AA70000FFFF000076A80000CE
:10725000FB48C17A002907D02919E0310A780823B0
:107260001A430A70C772D3E72919E0310A780A7005
:107270000121C172CCE72F55D5E7F0B500242327B3
:107280007F01F048062100226143081886467046B7
:1072900015218018890141188C46C978FF2902D030
:1072A00002290AD03FE0E84976254B7B03748B7BAB
:1072B0002B54C97BC030017735E00125AD0245195B
:1072C000037C6D7C0021AB4201D95B1E02E0AB4226
:1072D00002D25B1C037400E0012105466035C6192B
:1072E000AB7DF67DB34201D95B1E02E0B34202D210
:1072F0005B1CAB7500E0491C054606461320800167
:10730000C03530182B7F407F834201D95B1E02E0DD
:10731000834202D25B1C2B7700E0491C032902D375
:10732000FF216046C170521CD2B2062AAFD3641C42
:10733000E4B2112CA5D3F0BDFEB5C449C14D897F7F
:1073400000200091C2490A5CFF2A7DD009180B4633
:1073500060339E461B7C02939B18DBB2112B33D209
:10736000E024675C7C07640F2601A419E3185C0025
:10737000B84B1C5BB84B9C4226D0FE08E3B2009F82
:10738000240A002F72D07700F719B44E0197F75DE9
:1073900006265E43761936193774B446AF4E019F00
:1073A000BF1901977E7867466037BE75019F6646B4
:1073B000BF78C036377706277B435B191C19152326
:1073C00002269B01E318DE70029B9B1ADBB2112B95
:1073D00033D2E024675C7C07640F2601A419E3180C
:1073E0005C009C4B1C5B9C4B9C4226D0FE08E3B28D
:1073F000009F240A002F4DD07700F719974E019770
:10740000F75D06265E43761936193774B446934EF7
:10741000019FBE190196777866466036B775019E62
:10742000B7786646C036377706277B435B191C1949
:10743000152302269B01E318DE70844B1B7B002B77
:10744000834B3AD0521E00E009E0D2B21A54F02A1F
:1074500005D3FF221A5473461A74E0310A70401C97
:10746000C0B2662801D26DE700E0FEBD774FBE19BD
:107470002036B446777D06265E4376193619019686
:1074800037746646F77D019E6036B7756646777E2F
:10749000019E8EE76D4FBF19062620375E43019788
:1074A00076197F7D36193774019FB446FE7D674695
:1074B0006037BE75019F7F7EB3E7521CD2B21A546B
:1074C000112AC6D2CBE7F0B5002223256D01062094
:1074D0005C4B00215043C018844660461523401879
:1074E0009B01C418E378574E032B10D0022B2DD0EC
:1074F0000023037476242354C0300377491CC9B297
:107500000629EAD3521CD2B2112AE0D3F0BD0C23D3
:1075100053439B194C001C190B230126DB01B602B7
:10752000E31886195C8D767C7443240A047446192A
:107530005C8DF67D7443240A762634541324A4010A
:1075400004195B8D647F63431B0AD5E70C27134640
:107550007B439B194E009E190B230127DB01BF02C1
:10756000F318C7195E8D7F7C7E43360A067447196F
:107570005E8DFF7D7E43370A762637541327BF0181
:10758000C7195E8D7F7FC0307E43360A0677588DDF
:10759000801E80B25885FF28B0D900205885E07041
:1075A000ACE7F0B5002506202649002268434018C4
:1075B000844660468118152080010C18E378214E1E
:1075C000002B61D028460C27784380195600861975
:1075D0000B200127C001BF023018CF19468D7F7CD8
:1075E0007E43360A23270E747F01CF19468DFF7D17
:1075F0007E43370A762677541327BF01CF19468D6D
:107600007F7FC0317E43360A0E77012B06D0022BD6
:107610000CD0032B24D0042B2DD035E0418D891CB8
:1076200089B2418580292FD3802120E0418D891C9A
:1076300089B24185FF2927D9FF21013117E00000D8
:107640006C170010A00A0010E00B0010541300107B
:107650009C17001076A80000FFFF000042A9000060
:10766000418D891C89B2418540290DD34021418536
:107670000420E07008E0418D491E89B24185FF2950
:1076800002D900214185E170521CD2B2062A90D362
:107690006D1CEDB2112D86D3F0BDF8B50022FE4D64
:1076A000AC182046E03003788646FF2B5AD01807E6
:1076B000000F06284AD2010141187020005D081809
:1076C0004100F648415AF64881423FD0F54EC8B2D3
:1076D000767F090A002E4AD0AD5C6E00AE19F24DDD
:1076E000B446AF5D062605467543F04EAD1901263A
:1076F0006D18B602AE197774EB4F6646F619B446AC
:10770000777823267601AE19F77513276646BF01F1
:10771000B678ED196E770C2605467543E34E0027C3
:10772000AD194E00AD190B26F601AD196F851D0977
:10773000012D02D0022D00D0032506267043DB4E1A
:1077400080194118152080010818C57070465B1C0F
:1077500003701807000F062804D3FF20603420743C
:1077600071460870521CD2B2112A98D35BE5CD4DF8
:1077700006272035AC46AE7C05467D43CB4FED1940
:107780006D180127BF020095ED196E746546EF7CF8
:107790002326009D7601AD19EF7565462F7D1326D2
:1077A000009DB601AD196F77B5E7F8B5BA4E04463E
:1077B000351928466030017CFF2913D10474BC4878
:1077C000E035FBF71BFCBA491839C97D4843074629
:1077D000032102F08BFA080128703846112102F0CB
:1077E00085FA31551FE530B54100B2480622415AAD
:1077F0001525C8B203465343AC4A090A9B185B18C7
:10780000AD0101245B19DC7023020C246043801855
:10781000490040180B21C9014018438530BD30B5DF
:107820004100A5480622415A1525C8B203465343D4
:107830009E4A090A9B185B18AD0101245B19DC7094
:107840000C2460438018490040180B210023C90113
:107850004018438530BDF0B5924C0020267F974DEF
:10786000014620348C4A125C012A4AD1002E0BD0EA
:10787000AA7B5300D3188C4AD35C904FC03F3A5C2C
:107880009A4203D2521C04E0637BF6E79A4202D983
:10789000521E3A5400E0491C002E0DD0AA7B530022
:1078A000D318814A9A1853783F18BC4620373A7A41
:1078B0009A4203D2521C04E0E37BF5E79A4202D9D4
:1078C000521E3A7200E0491C002E0CD0AA7B5300D5
:1078D000D318754A9A189378674640373A7C9A428B
:1078E00003D2521C04E0637CF6E79A4202D9521E8E
:1078F0003A7400E0491C032902D3674902220A5462
:107900000021401CC0B21828ACD3F0BD70B50021D6
:10791000664C15239B01062200204A4312191518B4
:10792000ED18ED78002D2FD1401CC0B20628F6D3FB
:10793000491CC9B21129EED3604C0026A07A254615
:10794000C03D002821D0A672E672594826726672A0
:107950001838C07D112102F0C9F961735448FBF752
:107960004DFB112102F0C2F9A173E6732674FEF7F4
:107970008AFC00202E542918282256544031401CDD
:10798000C0B20E742828F5D370BD607A0128FBD1EF
:10799000A072FEF778FC40486672072160300174DF
:1079A0000221803001703F48E672007F00281AD023
:1079B0003D4B0020617B28264A008918595C2954D8
:1079C000617B4A008918C9184A7829187254627B69
:1079D000403156009219D218401C5278C0B20A7435
:1079E0002828E7D370BD2F49002020310C7B8B7BEA
:1079F0000A7C2C542918282673544031401CC0B2EC
:107A00000A742828F5D370BDF8B50024FFF723FFCA
:107A10002A4E264FC03E2048005D012802D0022891
:107A200023D061E000202146062251438C46614666
:107A300009184A002049895A194A914210D0CAB2FD
:107A400006256A43090AD2195118335D0B7433199C
:107A50002822D55C7622555440331A7CC0310A77EF
:107A6000401CC0B20628E2D33EE000202146062298
:107A700051438C46614609184A000F49895A084A01
:107A800091422AD0CAB206256A43090AD219335D47
:107A900051180B74331913E09C17001076A80000DE
:107AA000FFFF00005413001042A90000A00A0010BC
:107AB000120A0010B4300000E6A700006C17001096
:107AC0002822D55C7622555440331A7CDC235A5444
:107AD000152302229B01C918CA70401CC0B2062897
