:020000040000FA
:10200000781A0010A92A0000B52A0000AD2A0000A5
:1020100000000000000000000000000000000000C0
:10202000000000000000000000000000AF2A0000D7
:102030000000000000000000B12A0000C1590000AB
:10204000B52A0000B52A0000B52A0000B52A000014
:10205000B52A0000B52A0000B52A0000B52A000004
:102060009D210000B52A0000B32A0000B32A000019
:10207000B32A0000B32A0000E3280000B52A0000BC
:10208000B52A0000B52A0000B52A0000B52A0000D4
:10209000B5280000CD2E000085800000B52A000084
:1020A000712F0000B52A0000B52A0000B52A0000F3
:1020B000B32A0000B32A0000B52A0000B32A0000AA
:1020C00000F002F800F03EF80CA030C808382418E0
:1020D0002D18A246671EAB4654465D46AC4201D160
:1020E00000F030F87E460F3E0FCCB6460126334254
:1020F00000D0FB1AA246AB46334318474C7B000086
:102100006C7B0000103A02D378C878C1FAD8520725
:1021100001D330C830C101D504680C60704700009D
:102120000023002400250026103A01D378C1FBD8F3
:10213000520700D330C100D50B6070471FB51FBDDB
:1021400010B510BD00F052FF1146FFF7F7FF03F086
:1021500095FA00F06AFF03B4FFF7F2FF03BC00F04A
:1021600071FF000070B505460C46164602E00FCC24
:102170000FC5103E102EFAD2082E02D303CC03C591
:10218000083E042E07D301CC01C5361F03E0217899
:102190002970641C6D1C761EF9D270BDFB48016865
:1021A000C90703D00168012211430160704710B5CF
:1021B0000123F74C8B40800000190168002A01D0F0
:1021C000194300E09943016010BD01238B4080005A
:1021D000002A01D0EF4901E0EE4980314018036048
:1021E0007047F0B5EC480168402211430160016876
:1021F0003122D20411430160E84840684109E748B0
:102200004901416040681027E44938434860012291
:1022100019211046FFF7CBFF012219211046FFF7C5
:10222000D4FFDE4D403DE86A40094001E862E86ABB
:102230003843E862012213211046FFF7B8FF01225C
:1022400013211046FFF7C1FFD44C803C20694009A0
:1022500040012061206938432061012214210020BF
:10226000FFF7A5FF012214210020FFF7AEFF206B2E
:10227000400940012063206B384320630122042180
:102280001046FFF794FF012204211046FFF79DFF3F
:10229000286B400940012863286B384328630122DA
:1022A00014211046FFF783FF012214211046FFF787
:1022B0008CFF686A400940016862686A3843686256
:1022C000012211211046FFF772FF01221121104651
:1022D000FFF77BFFE86B40094001E863002217210C
:1022E0000120FFF764FFAD4800684109AB48490190
:1022F0000160002218210120FFF759FFA86A400958
:102300004001A862002212210120FFF750FFA34ED6
:10231000C03EF06940094001F061002207211046EB
:10232000FFF745FF9D48006941099C48490101614B
:1023300000221C210120FFF73AFF606B4009400199
:102340006063002205210120FFF731FFA06A4009E8
:102350004001A062002202210120FFF728FF286827
:10236000400940012860002208210120FFF71FFFDB
:10237000A06940094001A061002216211046FFF724
:1023800016FFF06A40094001F062F06A012108433B
:10239000F06200220B211046FFF709FFE8684009B0
:1023A0004001E86000220B210120FFF700FFE06BF5
:1023B00040094001E063002207210120FFF7F7FEFA
:1023C000206A400940012062002211460120FFF7E7
:1023D000EEFEA06B40094001A0630022062101200F
:1023E000FFF7E5FE286A400940012862002210211B
:1023F0000120FFF7DCFE2869400940012861002226
:102400000C210120FFF7D3FE686840094001686095
:10241000002209210120FFF7CAFEA86B40094001F4
:10242000A863002216210120FFF7C1FEB06B40090E
:102430004001B063B06B01210843B06300220E215C
:102440001046FFF7B4FE706B400940017063706B7B
:1024500001210843706300220D211046FFF7A7FEFB
:10246000306B400940013063306B01210843306319
:1024700000220C211046FFF79AFE20684009400117
:102480002060012210210020FFF791FE0022102180
:102490001046FFF79AFE606840094001606060687E
:1024A00038436060012211210020FFF780FE0122E5
:1024B00011210020FFF789FEA06840094001A060BB
:1024C000A0683843A060012212210020FFF76FFEB0
:1024D000012212210020FFF778FEE0684009400148
:1024E000E060E0683843E060012213210020FFF73C
:1024F0005EFE012213210020FFF767FEE06940091C
:102500004001E061E0693843E061012217210020C9
:10251000FFF74DFE012217210020FFF756FEB0689D
:1025200040094001B060B0683843B0600022022129
:102530001046FFF73CFE6869400940016861686920
:102540003843686101220D211046FFF730FE012259
:102550000D211046FFF739FEA86840094001A86028
:10256000A8683843A86000220A210120FFF71FFE57
:10257000606A400940016062606A3843606201211C
:1025800000220846FFF713FEF0BD000000C0054022
:10259000002000500022005080800440C0400440D1
:1025A0000246934B92000020D218FF2904D01268F3
:1025B0000A4200D00120704710687047F0B58DB016
:1025C000002414228BA101A80094FFF7CBFD142254
:1025D0008DA106A8FFF7C6FD01AE06AF0125305D4F
:1025E000FF21FFF7DDFF0B90395D284688400B99EE
:1025F0000842284604D10099A0408143009103E09D
:102600000099A04008430090641CE4B2112CE6D36A
:1026100000980DB0B8E7F0B580A003C887B002906D
:10262000039180A003C80027804E04900591777520
:102630007F483C46069004A8015D02A8005D002288
:10264000FFF7C3FDBE2000F01DF9FFF7B7FF0090B4
:102650003220401EFDD1FFF7B1FF01900AE0322089
:102660000091401EFDD1FFF7A9FF7F1CFFB2019032
:10267000062F03D2019900988842F0D10025284600
:10268000062148436B490219895C002924D06A4914
:1026900040180019C11DF9314A78012A0ED00122D3
:1026A000019BAA401A4217D0FF3001226130C2714B
:1026B0004A700020069900F08EFC1EE00122019B6A
:1026C000AA401A4219D1FF3001226130C2710020A4
:1026D0004870069900F07FFC6D1CEDB2112DCED331
:1026E00004A8015D02A8005D0122FFF76EFD641CD5
:1026F000E4B2062C9FD307B046E7707D401C70758E
:10270000EAE77047F0B545A003C887B0029003918F
:1027100044A003C8454E059120360490757804A85E
:10272000415D02A80024405D0122FFF74EFDBE205E
:1027300000F0A8F8FFF742FF00903220401EFDD1C4
:10274000FFF73CFF01900AE032200091401EFDD1CE
:10275000FFF734FF641CE4B20190062C03D2019908
:1027600000988842F0D13248304F00240090062073
:1027700021464143304808184019C11DF9314A78B3
:10278000012A0ED00122019BA2401A4217D0FF302D
:1027900001226130C2714A700020009900F01BFCD8
:1027A00021E00122019BA2401A421CD1FF300122EC
:1027B0006130C27100204870009900F00CFC641C6C
:1027C000E4B2112CD3D304A8415D02A8405D0122DC
:1027D000FFF7FBFC7078401CC0B2707006288AD3EB
:1027E0000020707087E7787D401C7875E7E700006F
:1027F000002100500101010001010101000001015F
:102800000101010101000000171812071C05020850
:10281000160B0B070006100C090000000101000157
:1028200001010000191314041411000054030010D6
:10283000F7080010A0940000340100100F48104960
:10284000807F085C0D4940398871012070470B4832
:102850000B4AC17F807F1154012070470848074907
:10286000401E0078403988710120704703480449B0
:10287000807F491E08700120704700001010001072
:102880000101001006E00421491E0906090EFBD1D2
:10289000401E80B20028F6D1704700B57D23024665
:1028A000DB0004E01846FFF7EDFF521E92B2002A4B
:1028B000F8D100BD774AD0697749C30704D04B6887
:1028C0005B1C4B6001231362830704D58B685B1C80
:1028D0008B6002231362400702D50868401C086021
:1028E00070476E4AD0696C49C30704D00B695B1C02
:1028F0000B6101231362830704D54B695B1C4B6199
:1029000002231362400702D5C868401CC8607047A4
:10291000F8B5634D6249803540260028486826D0C6
:1029200004221043486028681104084328601420DA
:10293000E8615C48C16949094901C161C169032273
:102940001143C161416B490949014163426B022155
:102950000A43426353484038426952095201426176
:1029600042690A434261286830432860F8BD012764
:10297000384348602868F9020843286008206861E5
:10298000484C803C216A490949012162216A394346
:102990002162616A490949016162616A3943616280
:1029A000616A01436162012209210020FFF7FFFBF8
:1029B000606A400940016062606A38436062394879
:1029C00040304169C908C900416109214161CAE734
:1029D00010B5032307240222002809D02F490C60D8
:1029E0000A6100208C68401CC0B20828FAD308E0B5
:1029F00028490C600A6100208C68401CC0B208287D
:102A0000FAD34A604B6110BDF0B58446002312260C
:102A1000204D142721480FE06446002C0FD0C468D5
:102A20003440022CFBD10C788460491CC4683C40C3
:102A3000042CFBD184685B1C9342EDD3F0BDEC68A1
:102A40003440022CFBD10C78AC60491CEC683C4053
:102A5000042CFBD1AC68EEE7F0B594460023FF27C9
:102A60000C4D14260D4A0AE000280BD09760D4685C
:102A70003440042CFBD194680C70491C5B1C6345EA
:102A8000F2D3F0BDAF60EC683440042CFBD1AC68ED
:102A9000F2E700000000044014010010008005402F
:102AA000008004408040044006480047FEE7FEE7FF
:102AB000FEE7FEE7FEE7000003480449024A044B34
:102AC00070470000C120000078160010781A00102E
:102AD00078160010F8B52C4A906B2021884390633B
:102AE0002A4B00261E62304600BF401CC0B2C828D8
:102AF000FAD3264901204031086048604E604860A2
:102B00004C68E407FCD023279F60946B8025AC437E
:102B10009463DC68E407FCD003240C6348634E63D1
:102B200048634C6BE407FCD08863946B0125AD02CD
:102B3000AC439463946BAD10AC4394638860C860FD
:102B4000CE60C860CA68D207FCD01F615A69D2073C
:102B5000FCD00E4AC0321660166090600B48803080
:102B6000026801242404224302609868084AC006CF
:102B7000C00E401C5043074C896B06F067F920607B
:102B8000FFF72FFBF8BD00000082044000800440E6
:102B9000001BB7002C0100109048807890487047C7
:102BA000904800210180C17001718F4AC164826424
:102BB000016570478B4910B55C31002005F037F98D
:102BC00010BD70B5874C4034228B402A00D940227A
:102BD000844D8020696D05F0F6F9696D0918696505
:102BE000218B081A208370BD10B57E4C0020616DCA
:102BF00005F079F9616D09186165214640310A8B4C
:102C0000121A0A8310BD10B500221146802005F06B
:102C1000DAF910BD734910B5891D002005F063F97C
:102C200010BD10B5802005F097F86E4800214030A7
:102C3000018310BDF8B56B4C00272546264640356C
:102C40006036297F030000F004FA08200593B720BE
:102C500020C2C420FFF7AEFF688C2883287F41067E
:102C6000890F02D0012926D14EE0697F0B0000F0C8
:102C7000F0F90C070D7C127C161E23292F38487C96
:102C800000F0F4F915E0FFF79CFFF8BD002003E029
:102C9000FFF7B9FFF8BD012006F0FEF960E0C006BD
:102CA000C00E62D1A87F80210843E070F0E706F0F3
:102CB0007BF90028E7D158E0002005F04DF800200E
:102CC0002883F8BDC006C00E4FD14648001D16E04F
:102CD00006F032FA002848D0FFF795FF00F08EF892
:102CE000F8BDC006C00E01283FD1207900283CD095
:102CF0003078A178884238D23A49491D4018606539
:102D0000C1E706F0BFFA2BE0C006C00E2DD00128A7
:102D10002BD1687F334D0300AD1D00F09AF90C24D0
:102D200007121A24242424240C171F240120707154
:102D300002F0A8FDF8BDFFF73DFFFFF764FF6565F2
:102D4000F8BDFFF77BFD06E065659CE7FFF77FFDBB
:102D500006E0FFF783FD0028F6D106E0FFF786FDC9
:102D6000002895D101E0002FEAD1FFF75AFFF8BD06
:102D7000C80902D0FFF74EFFF8BD288B0028FBD012
:102D80004806800FF1D00128EFD1C806C00EECD064
:102D90000128EAD1687F0928E7D101203071FFF7C7
:102DA00032FF12486065FFF71FFF0022A066114640
:102DB000802005F008F9F8BDC809A1D1E078010626
:102DC000F9D54006400EE07004F040FFF8BD002049
:102DD00000E0802004F0F5FFF8BD0000E8100010CE
:102DE000509B0000D00F0010010001007F07001071
:102DF00010B5FFF7D5FE10BD704770472F49012071
:102E0000887270472D4920394A7D0B7D12021A4382
:102E1000022802D0032804D1012002430A75100AB7
:102E200048757047254920394A7D0B7D12021A43A7
:102E3000022803D0032806D1042000E00820024322
:102E40000A75100A4875704708B500206946087071
:102E50001B481C49407B800140181B494118032036
:102E600005F041F800221146832005F0ACF808BDBA
:102E7000124920394A7D0B7D12021A43022807D0DD
:102E8000032804D1102002430A75100A48757047C0
:102E9000202002430A75100A487509480121017370
:102EA000704706482038417D027D09021143890997
:102EB00089010175090A417570470000E608001094
:102EC000301000104605001039020000F0B5254E04
:102ED000B068254A0007410F012938D01046031D6C
:102EE000224C0025C030022922D0032904D0062913
:102EF00009D11068B11518E071699E27C9B239422D
:102F000002D011603068F0BDC907FCD031688689F5
:102F1000F1548189491C81812573290A6173818952
:102F2000C829F0D385811068022108431060F0BDE4
:102F300031688689F1548189491C81812573290A68
:102F400061738189C829F2D385810220EEE7706917
:102F500020218006002801DA1160F0BD1068884346
:102F6000E4E7000000800040000F0010E9080010B6
:102F700038B50E48016B0091490715D580690C4C96
:102F80000004800DA060607C401CC1B26174A26826
:102F9000606980186061642906D3642105F056FFDA
:102FA000A06100206061607438BD000000C0014075
:102FB000040900100378C2781946437812061B02F0
:102FC00019438378C0781B04194311430902090A85
:102FD000000608437047020A08704A70020C8A70A3
:102FE000020ECA707047704770477047754600F010
:102FF00025F8AE46050069465346C008C000854620
:1030000018B020B5FFF758FD60BC00274908B64648
:103010000026C0C5C0C5C0C5C0C5C0C5C0C5C0C5E7
:10302000C0C5403D49008D46704710B50446C046B6
:10303000C0462046FFF78FF810BD000000487047DB
:103040001816001001491820ABBEFEE7260002004A
:10305000704730B47446641E2578641CAB4200D2BD
:103060001D46635D5B00E31830BC184730B51B4854
:103070001B4C007FC106C90E09D020466025821D69
:103080000379285C012904D0022924D108E0646571
:103090001FE0002B1FD0A17888421CD2002016E030
:1030A0008F210840010605D505072D0F01210904D0
:1030B000A94001E001218140002B01D100070AD184
:1030C000A06C084207D0E06C084000D00120E080EE
:1030D0006265012030BD002030BD000010100010DE
:1030E000D00F00100A030A040904080408030802A8
:1030F000080109010A010A0209020903D700410077
:103100005A5A0000FE4800220079012814D1FD48D7
:103110007723017C19400174FF306130C17A194076
:10312000C172F948032382180D208001101882789B
:10313000012199408A4382707047F8B5F34B002112
:1031400019709970D970F248009001714171F1487D
:10315000F14A8170C17041710173C1711971FE2012
:10316000D074EC4859703030817200201B25E64F36
:103170006D013C18E31DFF33FA3319746619F172BF
:1031800019721970E54B1B1899700723DB01E318BE
:10319000401CC0B2D9720828EBD300200D24A40132
:1031A0003B181B19401C9975C0B259701528F7D3EC
:1031B000DB4F0023062500205D43EE193418FF2560
:1031C00002352955FF2568352955FF34C134401C87
:1031D000C0B261730628F1D35B1CDBB2112BE9D3BB
:1031E000CC48CA4B4170817141720646017030363D
:1031F0001175FF27F7729B1D19809970C94D002327
:103200002980EC18A034A1705C0064195B1CDBB24F
:103210006180502BF5D3BF4BC34D30331980BF4B6A
:10322000BE48123399705970D970197059719971DB
:10323000D9715972D9721C461973B23C2177D98160
:10324000923BFF24597001342C802972E971B24CF1
:103250009970D970203C5175A446E186FF3C013C31
:103260002170AC4CFF26E17206704170C172817210
:103270000173AE4801706173A97020462971303026
:10328000C173AB48062641718671C17101724172EA
:1032900081722646E1730F27303637779C4E2174B2
:1032A0001176603EB166C172FF260673A174697320
:1032B0002046E174503081701C46C1703E3421704C
:1032C000617000202518A970401CC0B24028F9D3B5
:1032D000904C654621756175A175A16120462177E5
:1032E0002030017151766987117751776246D18715
:1032F000894A8A4D20321170417181710172C17108
:1033000041728172623D69612977C172009841738F
:10331000217251709170D1709975F8BD1CB5002063
:103320000090019072B60F21084604F038FF002883
:103330000AD10F21084604F01FFF002804D10F21F5
:103340006A46084604F049FF62B61CBD6D4800217C
:103350002030017041708170C170017141718171C3
:10336000C1717047704770B56A486C4C407A00254F
:10337000803C01280AD16F482646C07817360128BC
:103380000BD0A57531460020FFF725FEE07E012811
:103390001AD02577280A607770BDA07D0028F5D166
:1033A0003046FFF707FEFF21F5318842EED30120BA
:1033B000A07531460020FFF70EFE5148057005F05C
:1033C00013F805F059F8E1E7607F217F0002084318
:1033D0006428E1D9E57670BD10B5812004F09BFE2C
:1033E000002813D0474908221031812004F0EBFD5A
:1033F0004A48A038417D027D090211438122914350
:103400000175090A417543490020887010BD434980
:1034100010B50920E0394870822004F07CFE0028B5
:1034200013D03E491022DF39822004F0CCFD3B4806
:10343000A038417D027D090211438222914301752A
:10344000090A417533490020887010BD70B50546E2
:1034500000240220FFF721FA00212B4A002D0ED074
:103460001B235B01101921252D012954C018641C50
:10347000E4B2C172082CF5D3FFF7AEFF70BD0D2387
:103480009B011019C018641C4170E4B28175102CA6
:10349000F7D3FFF7BCFF70BD70B51F490020203186
:1034A0004978044600295CD11B49497D002958D13F
:1034B000154D00262918FF31FF310231097C002902
:1034C00001D0012405E0401CC0B20828F2D3002C32
:1034D00010D000201B22520129188B18FF31FF3118
:1034E0000231401CDE72C0B20E741028F4D30120E9
:1034F000FFF7ACFF01200D229201291889181BE06B
:10350000E8100010460700104605001008010010E2
:1035100030100010AC0E00105403001066090010AB
:103520003401001078030010B014001030010010B6
:10353000B80A0010340200104978002905D1401C57
:10354000C0B21528D9D3002C0BD000202918891817
:10355000401C8E75C0B24E701528F7D30020FFF7BF
:1035600075FF70BDFEB5F74FF74E3846FD8F203022
:103570000190417F2030009032460D3A2846547920
:103580001438DE291ED0DF291BD1142D19D90D21A5
:1035900005F066FC002914D16D1EFD87EB4B31460A
:1035A000A05D1A5D0D39904222D9401FC2B2A255CA
:1035B0004879F02A01D31A5C82550878891C04F0F6
:1035C0006DFEFEBD142DFCD90D2105F049FC00292E
:1035D000F7D16D1CDD4AFD87DB490D32A05D125D20
:1035E0000D39904202D2401DA055E6E7DE2100E0F1
:1035F000DF2100980170019900204877F887FEBD0F
:10360000F8B5D04D6A8F2E46531C9FB2CE4B203654
:103610000D3B717E10469C7914381B780093D62997
:1036200014D0D72911D1142A0FD90D2105F018FC77
:1036300000290AD1C4496F870D39002C16D0641EA9
:103640008C71891C009804F029FEF8BD142AFCD95D
:103650000D2105F005FC0029F7D1BB496F870D3915
:10366000142C01D2641CEBE7D62000E0D720307781
:10367000002070766887F8BDFFB50446B248B44EA6
:103680000D38857981B01746012B1DD0022B36D01D
:10369000032B50D005B0F0BD385DFF280ED00621B9
:1036A00005F0D4FB06225043AA4A80184018603027
:1036B000807D1421684305F0C9FB00E0002031192A
:1036C0002031641C8871E4B202988442E4D3E1E7BB
:1036D000385DFF280DD0062105F0B8FB06225043C7
:1036E0009C4A80184018007C1421684305F0AEFB0A
:1036F00000E0002031192031641C8871E4B2029886
:103700008442E5D3C6E7385DFF280ED0062105F0D8
:103710009DFB062250438F4A80184018C030007F1E
:103720001421684305F092FB00E00020311920319C
:10373000641C8871E4B202988442E4D3AAE770B5AD
:10374000002506462C4620460C2148434118C9B2A4
:10375000C0B201233246FFF78FFF0C20641C604388
:1037600001460C31C9B2C0B202233246FFF784FFD2
:103770000C20641C604301460C31C9B2C0B2032363
:103780003246FFF779FF641C6D1CEDB2E4B2042DE4
:10379000D9D370BDF8B5002020216D4D06462970A3
:1037A0006870FF272918401C8F7080B20E75122890
:1037B000F8D3002029182031401C80B28E71902847
:1037C000F8D36548FFF7BBFF6248614C80788034CE
:1037D000012804D120462038C775E770E77300221E
:1037E00011211046FEF7F1FCB62259490120FFF7DE
:1037F0000BF9012211210020FEF7E7FC0020291817
:103800002031401C80B28E719028F8D352489030FD
:10381000FFF795FF4F48C078012804D14C48E77561
:10382000A030C770C773002212211046FEF7CDFCEE
:10383000B62247490120FFF7E7F8012212210020B4
:10384000FEF7C3FC002029182031401C80B28E7185
:103850009028F8D33D489038FFF771FF00221321DC
:103860001046FEF7B2FCB62239490120FFF7CCF82A
:10387000012213210020FEF7A8FCF8BDFEB5324955
:10388000364A364B0D39497992695B69314D0020D2
:103890000093923D2C4C0646314F0B00FFF7D9FBAD
:1038A0000E081F222A40B7DEF8F6F5F4F3F2F1987D
:1038B000095D2A488A4204D38661BE72042003F05F
:1038C000BBFF28480188807A02F08AFAB87AFF287C
:1038D0007ED11D480D38C07902F026F975E11F48E8
:1038E000095D2BE1095D1D488A4271D3866103F0B1
:1038F0009DFE6AE1085D194F824202D3BE6103F06A
:103900000BFE11480A210D384079005D05F09EFA42
:10391000396988425CD803203E6103F0FBFC54E126
:103920000F48B97A0B30009007480423185C00292F
:103930001AD04008824244D308488661787A002829
:1039400033D03EE034030010F5100010B6960000AE
:10395000900400107809001006950000DC0E00109D
:1039600098140010B0140010F64F824204D3BE61C8
:103970000121009803F03BFDF34806214079005DEA
:1039800005F064FA3969884202D83E6103F02DFDE2
:10399000ED481E214079005D05F058FA79698842AA
:1039A0009CD803F0FCFA7E610FE103F057FFF87A30
:1039B000401CC0B2F8720F2803D30F20F872012008
:1039C0007872E1481E214079005D05F03FFA00E081
:1039D000B2E0DC494969884206D8DA48466103F01A
:1039E000F0F9009803F081FBD7480F214079005D82
:1039F00005F02CFAD3490A69904290D80E6103F081
:103A0000F4FC787A01288AD103F04BFADDE0CD4F3F
:103A1000142A0BD3CD48BE61FFF7CCFA697948432D
:103A2000112105F013FA084603F077F9C648396901
:103A30004079005D82008018814202D33E6103F02C
:103A4000E4F8C1480C214079005D05F0FFF979697F
:103A5000884271D87E6103F06DF8B6E0B94F095D18
:103A60003869884202D33E6102F018FFB6480F2140
:103A70004079005D05F0EAF9796988425CD87E6199
:103A800042E08CE060E042E02BE015E00AE0FFE776
:103A9000085D0F2105F0DAF9009AAA4990424BD847
:103AA0004E6131E0085D0A2105F0D0F90099A54A80
:103AB000884241D8566127E0095D0098A14F8842AD
:103AC00002D37E6102F02DFC9F4805214079005D04
:103AD00005F0BCF9396988422ED83E6102F0FBFB43
:103AE00073E0095D0098974F8900884202D37E6198
:103AF00002F03EFA944807214079005D05F0A6F9EE
:103B00003969884218D83E6102F069FE5DE08E484E
:103B10008030407A002858D08B490B230D31595CF6
:103B200001280AD0022807D186488A4204D3866138
:103B30000120A87302F090FFFEBD82488A42FBD3A9
:103B4000866103F04DFE40E07F494031CA7C01921E
:103B50000A7D497D944600917C4B0C2242438C3374
:103B6000D718062200214243D6184B00FC18112317
:103B70009B01FF22E3180132DA847218019B13744F
:103B8000644676239C54C032491C009B89B213774B
:103B90000629EAD3401C80B21128DDD315E0FF23AB
:103BA00096276A4C062200218C344243161972185B
:103BB00017747624A354C032491C89B2137706299E
:103BC000F5D3401C80B21128EBD30120A873FEBDB1
:103BD00070B5822004F09FFA002820D05B4C0425A9
:103BE000263C2146E57209220B31822004F0EBF9D4
:103BF000607D217D00020843A8432075000A60759E
:103C0000504800213038C171514A07230846DB0172
:103C10001418E418401CC0B2E1720928F8D370BD32
:103C200002204B4A00211318FF33FF330233401C9C
:103C3000C0B219700828F6D3704710B5822004F07E
:103C40006AFA002817D03F490020303908704149EE
:103C5000012008700822822004F0B5F9FFF7E0FF88
:103C60003A482638417D027D090211438122914361
:103C70000175090A417510BD10B50446812004F094
:103C80004AFA002813D008222146812004F09BF92B
:103C90002E482638417D027D09021143812291433D
:103CA0000175090A4175274900203039887210BD15
:103CB00010B5822004F02FFA002823D00720244AD0
:103CC00011235B011118C918401E0C7800064C70B6
:103CD000000EF7D11F49042420310C7009228220E4
:103CE00004F071F9FFF732FB18482638417D027D58
:103CF00009021143A1430175090A417511490020C8
:103D00003039487110BD10B512480321017282206C
:103D100004F001FA002814D00E490822083182204C
:103D200004F051F909482638417D027D090211430A
:103D3000042291430175090A417502490020303976
:103D4000487010BDDC0E0010E8100010EC080010E8
:103D5000460500104607001070B5F94C0020E178C8
:103D6000F84A002911D00D239B011118C918401CD5
:103D70008D7DC0B28D700F28F7D3FFF7C3F9E078BF
:103D8000002810D0FFF743FB70BD1B235B01111807
:103D9000CD18FF31FF310231401CED7AC0B20D74F5
:103DA0000828F4D3E9E7FFF717FB70BD70B50024CE
:103DB000822004F0B0F900281FD0E3480425014612
:103DC000C57609221B31822004F0FDF80020DD4970
:103DD0001B2252010B199B18641CE4B2D876102CDC
:103DE000F8D3D94920314A7D0B7D12021A43AA43E8
:103DF0000A75120A4A75D549487470BD70B5D24922
:103E0000E1220A77D14B487701225A74CC4E022422
:103E100075790300FFF71DF9120F0A0F0C1012102D
:103E2000120E0E10121012101012140F307808E03B
:103E3000307906E08D7770BD8A7770BD8C7770BD64
:103E4000F078887770BD10B5812004F064F90028FF
:103E500012D00822BE49812004F0B5F8BA482030BB
:103E6000417D027D09021143812291430175090AB6
:103E70004175B6490020C87010BDF8B5B34C002696
:103E800030342680A670B34826810671B24DAF4FFC
:103E9000E670E078B0494200A23951184988C90B50
:103EA0001AD0425D002A17D0A64902200B18FF3312
:103EB000FF3302331B7C934207D10818FF30FF30D9
:103EC000023006740120F87004E0401CC0B20828DB
:103ED000ECD301E0FFF7B7FFF8780128FAD0E078DB
:103EE000401CC0B2E0705028D3D3964A002011186D
:103EF000FF31FF310231401CC0B20E700828F6D3EA
:103F0000E670FFF79AFEF8BD904A3032D07850281C
:103F10000ED3D1880023012906D91089012803D99D
:103F2000D370401E108105E0002902D089484370FB
:103F30007047D370138093707047844910B5303147
:103F4000C978854A00208B5CA23A49008A188049CA
:103F500080241039BC2B0CD0BD2B12D0BE2B17D017
:103F6000BF2B05D152888A7002205204520ECA70AB
:103F700010BD52880120D243521C0A71120A2243FA
:103F800004E052880A7101205204520E4A7110BD99
:103F900052880220D243521C8A70120A2243E6E75A
:103FA000F8B56C496C4801270F71801E0025807898
:103FB0002E46002804D16848A2380088002817D06F
:103FC0006248654C3030C17802468C46095D1288E3
:103FD0000B46BC3B032B25D80546002A09D0FFF72A
:103FE000ACFFE978491CC9B2E970022802D00DE0A3
:103FF0004E70F8BD502909D2085DBC2801D0BD28FB
:1040000004D1FFF79AFFE878401CE8704F4C277006
:10401000FFF713FE20780128FAD0FFF775FF2E80F6
:10402000AE70F8BD604643004B48A238181840886F
:1040300043045B0C9A42F4D3424BC20BD81DFF30B1
:10404000FA30002A31D00A46B73A0A2A1AD801258E
:104050001300FEF7FEFF0B07090B0E104F4F4F4FDB
:1040600012144F00477045E0022100E00421417026
:1040700040E00821FBE71021F9E787713AE0FF21D2
:10408000817137E002201A18FF32FF320232127CAF
:10409000002A04D0401CC0B20828F4D32AE0181823
:1040A000FF30FF300230017424E00A46B73A112A8B
:1040B0000ED801251300FEF7CCFF0B0707070707F3
:1040C0001D1D1D1D09091D00467013E0867111E0BC
:1040D00002201A18FF32FF320232127C8A4205D1C6
:1040E0001818FF30FF300230067403E0401CC0B2E5
:1040F0000828EED31548C7700746FFF7A4FEF878E6
:104100000128FAD0002D01D0FFF797FD0F4D303573
:10411000E878401CC0B2E870502805D37DE7401C09
:10412000C0B2E8705028F9D8C0B2015D4906F6D097
:1041300073E708494878002810D0012815D12FE7E7
:10414000E810001046050010A6080010AC0E001084
:1041500056070010080100101A040010FA4A002047
:1041600050730879002800D087E67047F74800218F
:1041700081724172F449012030394870704710B59E
:1041800002220124F149BB282DD008DCA538030008
:10419000FEF75FFF070E1016181A1C1E1200BC381F
:1041A0000300FEF756FF072326291D171A2C0900C6
:1041B000B72000E0B6204872E3483038447010BDA4
:1041C000CD20F8E7B520F6E7E220F4E7EA20F2E7B1
:1041D000E920F0E78C728A20EDE78C729420EAE700
:1041E0008A722320E7E78A722420E4E78A72252076
:1041F000E1E78A722720DEE78A722A20DBE78C72E9
:104200008320D8E730B5D14B022420331C7059707D
:10421000192199705D21D97020211971612159717D
:104220009871C9490120DA713039487130BD30B513
:10423000C64B022420331C7007245C709870C2485F
:10424000D9701A713038417A597100219971D97138
:104250000121417130BDBD4A10B5022320321370D7
:1042600008235370192393705D23D3702023137197
:10427000612353719071D171B34901203039487174
:1042800010BD10B5B2484178012903D10021417019
:10429000FFF7F3FD10BD30B5AC48002541784C0860
:1042A0006400D32A19D007DCCE3A1300FEF7D1FE02
:1042B000050D0F1119191C00D42A10D0D52A04D0CD
:1042C000F12A10D0F22A0FD10DE044700CE0FD224B
:1042D00000E0FB221140417006E0F722FAE7EF22EE
:1042E000F8E7857100E0C571974901203039087001
:1042F00030BDF8B5954C944E607801250146FF27F6
:104300002943303ED32A22D007DCCE3A1300FEF7F1
:10431000A0FE050D0F1115171C00D42A19D0D52A9F
:1043200019D0F12A0ED0F22A0FD10DE061700CE005
:10433000022100E004210843607006E0A77104E058
:10434000A57102E0E57100E0E7713570F8BD082164
:10435000F1E71021EFE761703570FFF76EFC307800
:104360000128FAD035706078400840006070FFF78F
:1043700064FC30780128FAD060782843DCE730B458
:104380000623744C43431B195B18FF3301335B78DE
:10439000012B01D030BC7EE730BCAAE76E4A022177
:1043A0005318FF33FF3302331B7C83420AD150186A
:1043B000FF30FF300023023003746349012030399D
:1043C00088727047491CC9B20829E9D37047624A0C
:1043D00002215318FF33FF3302331B7C002B04D020
:1043E000491CC9B20829F4D370475118FF31FF3175
:1043F0000231087454490120303988727047F8B589
:10440000514C0123303C0646A370E03E1F46B740A6
:104410001B24514D0A4664012919CB7A012A05D083
:104420000022072E2CD8BB43CB724AE0072E02D8BD
:104430003B43CB7209E002216A181219D27A002A92
:1044400007D0491CC9B21029F6D3444A0021105C98
:1044500007E069180919C872F7E70838491CC0B2A3
:10446000C9B20728F9D80E2947D86A180D21890141
:10447000511807231B1A8A7D01209840024339E016
:1044800002216B181B19DB7A2E46834205D10022CC
:104490006B181B19DA720A4603E0491CC9B21029CD
:1044A000EFD3002A0DD031460F310F1907E00F2A44
:1044B0000BD0B11809190B7BCB72521CD2B2102A47
:1044C000F5D3264A0021105C06E00021F972F4E7DA
:1044D0000838491CC0B2C9B20728F9D80E290CD82F
:1044E0006A180D218901511807231B1A8A7D0120A2
:1044F000984082438A75FFF72FFCF8BD10B50C4633
:10450000C32813D0C42810D10A20FEF7C6F92146CB
:10451000E020FFF774FF0A20FEF7BFF921461920BB
:10452000FFF76DFF0220FEF7B8F910BD0A20FEF775
:10453000B4F92146E020FFF762FF0A20FEF7ADF94B
:1045400021460620ECE70000DC0E001046070010B4
:10455000080100103401001046050010A09300006F
:10456000F0B5A5B0002001901D20F64940010818C3
:1045700009900922F448920182180092C21DFF326C
:10458000FA320792F14A08921B2252018A180692C7
:10459000EE4A733A05921122520184188818049049
:1045A0000020039001980622E749504302904018EA
:1045B0000A90039940180146FF316131CA79012AF6
:1045C00009D00020C8710398401CC0B2039006288F
:1045D0006FD20A98EDE7C51DF9356A78012A0DD02A
:1045E000FF30C130477B0026D948CE7100780128C2
:1045F0001FD0D848807C01281FD063E0D54B039E94
:104600005B7A012B029B0BD09E19D04B803BF31899
:10461000112676019B199F78FF30C1304773E2E77E
:104620009E19CA4B803BF6180523DB01F3181F7A4D
:10463000F2E703F045FA25B0F0BD012A3AD004981C
:1046400046750498F1214174F2218174049901980E
:10465000C874039808750498617D8175BD480499F4
:10466000427ACA7501210172822003F054FD0028AC
:1046700024D00499042008740922B749822003F049
:10468000A2FC00201121AF4A490113185B18401CFD
:10469000C0B21E740928F8D3B049487D0A7D0002D3
:1046A0001043042290430875000A4875A948067211
:1046B00008E0F2E3049901204875C2E7A548007AB2
:1046C0000128D1D0A348407D012807D1E32F02D093
:1046D000E22F02D002E0E22700E0E327BB2F5AD00E
:1046E00035DCAA2F57D024DC8B2F09D010DC872F84
:1046F000FBD006DC002F54D0642FF6D0852F78D164
:104700006CE1882FFCD0892FFAD08A2FF7D165E190
:10471000A62F40D006DC902FF2D0912FF0D0A52FFD
:10472000EDD138E0A72F36D0A82F34D0A92FE6D16D
:1047300031E03846AB380300FEF78BFC102DF8CC87
:10474000CCCCCCBAF7F65B8A505F722D3E5B384614
:10475000BC380300FEF77DFC3C1F1F1F1F1F1F1FDF
:1047600026264D4D4D4D4D4D4D4D4DF4F4F4F4F484
:10477000F4F4F4F3F24DF1F0EFEEEDECEB4D4D4DC2
:104780004D4D4D4D4D4D4D4D4D4D4D4D4D4DF4F40B
:10479000D94D4D4DC64D68780128384676D0FFF783
:1047A000E5FC65E36878012804D000213846FFF76E
:1047B000A5FE5DE30121F9E768780128F1D163499D
:1047C0008039C878002806D0CE700878891C03F09C
:1047D00065FD112000E10120C870F6E76878012826
:1047E000DFD10098C078012804D000990120C8705A
:1047F0003EE393E20098C6703AE368780128D0D18E
:10480000524F803F7879042876D2401C78717879AD
:1048100004F03CF93878B91C03F040FD0820DBE0D7
:1048200068780128BDD1494E803E7079401CC0B2E5
:104830007071062801D30A2801D9062080E1C0B290
:1048400004F024F93078B11C03F028FD0920C3E0FE
:1048500068780128A5D100988078012817D00099A0
:10486000012088703E48816849094901816081685A
:10487000082211438160012202210020FDF797FCEC
:10488000002202211046FDF7A0FCF1E243E200986D
:104890008670334881684909490181608168102226
:1048A00011438160002202211046FDF780FCDFE207
:1048B000687801289CD1254980390879002806D0DC
:1048C0000E710878891C03F0E9FC032084E00120C4
:1048D0000871F6E7687801288AD11C488038AC3F17
:1048E00007700CE06878012886D118488038017874
:1048F000042902D0042101E014E10121017003F038
:1049000073FD03F0B9FD012066E068780128BCD191
:104910001048C17C002927D0C6740C481149803842
:10492000007803F095FDA3E2CDE167E042E0A2E16B
:1049300089E12FE106E1D1E1F6E0E8E067E156E147
:1049400056E0000046050010340100106811001008
:1049500030010010AC0E001076070010C6080010E1
:10496000004004400A1300100121C17400201121ED
:10497000F74E49013218521893780BAA1354401C71
:10498000C0B26628F6D300200527FF013218D319DC
:104990005218401C1B7AC0B293706628F6D30020D0
:1049A0000BA933180A5CDB19401CC0B21A726628C6
:1049B000F7D35DE26878012804D0E6484672C673F2
:1049C000052009E0E3480121024641723032127F9E
:1049D000032A00D0C1730420207649E268780128B8
:1049E000384602D0FFF7DAFC42E2FFF7F0FC3FE284
:1049F0003A4603990198FFF7C2FC39E2687801282A
:104A00000998407802D0002873D001E0002809D02E
:104A1000FFF737FC039A029869788018C0B2FFF755
:104A20001AFC25E2CC484078012829D0C9480399CE
:104A3000407A012802981CD04018C64930310871CC
:104A4000C44FC34830373A790078C44903F074FD45
:104A5000C2480088F8803881039A02998918F9724F
:104A6000FE70BF493E80BE70884207D10120B872F7
:104A70003AE04018B74930316630E0E7BE7233E0C3
:104A8000B44803993030C27A02984718BA423BD0F2
:104A9000B048407A01281ED0AE4830300771FFF789
:104AA000ECF9AC48AD4930300279A948007803F000
:104AB00043FDAA48A74900883031C8800881CF72D9
:104AC000CE700E808E70A64988420AD1A14901207D
:104AD0003031887208E038469E49663030310871BE
:104AE000DDE79C48303086729B4901204870BFE169
:104AF000FFE79848039A30300299C37A89188B42AD
:104B00008FD1807A01288CD193484670B0E16878C3
:104B1000012886D18E4F7879401CC0B278710D285B
:104B200000D274E67E7172E668780128DFD1884E83
:104B30007079401EC0B27071F02800D27FE60C2060
:104B400070717CE668780128D1D1814F787900288E
:104B500006D0062812D009280ED00A2817D10FE057
:104B6000F979012903D0032903D0012102E00321AF
:104B700000E00421F97104E0BE7202E03E7300E03F
:104B8000FE7203F083FF3878B91C03F087FB0A201C
:104B9000207629E06878012828D10B206C4F2076F8
:104BA0007879002806D0062810D0092811D00A28C4
:104BB0001AD111E0F979002903D0022903D0FE713E
:104BC0000CE0022100E00521F97107E001213973B1
:104BD00004E00121B97201E00121F97203F056FFEE
:104BE0003878B91C03F05AFB5A48C67340E168781C
:104BF00001280FD156498879401CC0B28871142809
:104C000003D314208871D62011E0D62012E06878F2
:104C1000012801D066762BE14D498879401E0006B7
:104C2000000E887101D0F02803D38E71D720207731
:104C300002E0D720607626770878891C03F02EFBE7
:104C40000798468714E16878012817D140494879C8
:104C50000D2814D2059A059B825C521DD2B2C25413
:104C60004879404B1B5C9A4203D3059A8354DE2259
:104C70001BE0DE201DE06878012801D06677F7E0B0
:104C8000334948790D281DD2059A059B825C521F35
:104C9000D2B2C254334B48790D3B1B5C9A4201D9C6
:104CA000F02A05D9059A8354DF220098027003E0A8
:104CB000DF206077009806700878891C03F0EEFA10
:104CC0000798C687D4E06878012805D000220399A8
:104CD0000198FFF7ACFACBE00122F8E768780128E9
:104CE00018D13146204E1A4F71727879401CC0B2EB
:104CF0007871042800D97971787903F0C7FE012012
:104D000070723878B91C03F0C9FA7A7938780421BE
:104D1000FFF778FAACE0FFF732FAA9E068780028EC
:104D20000AD00D48801D06800948C07800286CD044
:104D30000E480021C05D8AE007490020891D0880D7
:104D40000348C078002813D008480021C05D48E01F
:104D5000E8100010AC0E00100801001078030010DD
:104D6000FFFF0000C3960000B0140010A0930000E5
:104D700039460020E039072905D80698C27A012073
:104D8000884082434AE00221F84A1B2356185B01FF
:104D9000F618F67ABE4205D100205218D218D07209
:104DA000084603E0491CC9B21029EDD3002828D0D9
:104DB000EE4E1B2731460F317F01CB1907E00F283C
:104DC00008D03118C9190A7BCA72401CC0B2102819
:104DD000F5D316E00021D972F7E70838491CC0B2B4
:104DE000C9B20728F9D80E2942D8E04A0723521839
:104DF0000D21890151181B1A8A7D01209840824398
:104E000034E0DB490120887032E03846E03807287A
:104E100007D80699CA7A012181400A430698C272CE
:104E2000EFE702201B22D14952010B189B18DB7AB5
:104E3000002B04D0401CC0B21028F6D3E1E70818BC
:104E40008018C772DDE70838491CC0B2C9B207280C
:104E5000F9D80E290CD8C54A072352180D2189010B
:104E600051181B1A8A7D0120984002438A75C8E7B1
:104E7000039902984018BF49085C002801D1FFF748
:104E8000A2FBBD486A784079012A07D007281DD0C7
:104E9000082820D00B28F2D122E02AE0801F03004E
:104EA000FEF7D7F8060514190A0F1E04E7E7039961
:104EB000019801F043FCE2E70399019801F09EF9A3
:104EC000DDE70399019801F022F9D8E703990198E9
:104ED00001F066FBD3E70399019801F0F0FACEE701
:104EE0000898407A0228CAD10399019801F03EFB44
:104EF000C5E70198401CC0B20190112801D2FFF70C
:104F00004FFB25B0F0BDFEB59C4A01920024103243
:104F100006469B4D2046009208292CD2E200112320
:104F20005B0107E01418375D904C2418E418401C0E
:104F3000677480B28842F5D38D4C01206071822065
:104F400003F0E9F8002812D001980426067409221B
:104F50008220009903F037F8687D297D000208431C
:104F6000B0432875000A687500206071FEBD607945
:104F70000128E4D0FEBDC808401C02902FE00021AB
:104F8000E20011235B015018375C78484018C018C4
:104F9000491C89B247740829F5D3754F01207871EF
:104FA000822003F0B8F8002813D001990420087477
:104FB00009228220009903F006F8687D297D00020D
:104FC0000843042188432875000A68750020787119
:104FD00002E078790128E3D0641C0298A4B2A042D0
:104FE000CDD8FEBDF8B56748674B82785F4807218A
:104FF000C901C5184118FF26813A00243336887E3E
:105000001300FEF726F80B070A151A1E1111474C5C
:10501000515511000221584804E0294603F022FAB4
:10502000882149E0FFF76FFF564800218170F8BDE5
:10503000294603F00DFACC213EE0294603F038FA68
:105040002BE04D48CA7E0078504903F075FA4F4F67
:105050003988080A01D0012200E0002247481123C4
:105060004276817641495B01600020186200801C15
:10507000D219C0B252880818160AC018467682762D
:105080003A19A032641C9278A4B2C276502CEBD3A9
:10509000F22111E0294603F025FA31460CE02946B9
:1050A00003F02BFADD2107E0294603F030FAF4E79C
:1050B000294603F037FA03212846B3E710B572B644
:1050C0000121002003F06BF80006000E0CD12C4CDF
:1050D000FF222034607B01320002244903F06FF884
:1050E000617BC0B2491C617362B610BDF0B5244942
:1050F00087B0F820214D0873A87E4873EF7E8F7328
:105100002A7FCA738F760197CA7602926E7F0596C0
:10511000AE7F42060B4604960024520E2033164EF4
:10512000072A73D013DC1A4B1049CB1800931123B4
:105130005B01C918104BC97E1B780393491E1300ED
:10514000FDF787FF072E2F3C4D5CA8D02E00302A9C
:105150007ED006DC0B2A7CD0152A1BD0202A1FD13A
:105160006EE1352A76D0602AF9D11FE1460500109C
:10517000AC0E0010A0940000E810001066070010AC
:10518000C608001008010010390200007803001062
:105190003D020000000603D45F757B2003F0C6FAD1
:1051A00054E1000608D40399B942F9D0377003F0EE
:1051B0001BF903F061F949E18121EAE000060CD412
:1051C0000429EDD23846009903F068F83446307867
:1051D000B11C03F047F9607957E08221D9E000065D
:1051E0000AD40429DCD23846009903F045F8307817
:1051F000FE4903F02DF929E18321CAE0000647D4D6
:105200000298002803D0012810D01FE16DE0F84A71
:10521000112330465B0111190619C918E036641CC8
:10522000497FA4B2B175CC2CF5D30FE121460623FA
:10523000F04A594300208C468F1861460B18EE49FE
:105240005A18F6218E5C3918FF320E74413202E092
:10525000A2E08AE0DDE0127F76267254E44AC03193
:105260009B18112252019A18401C527F80B20A7773
:105270000628E2D3641CA4B2112CD7D3DD490198CF
:10528000103102F0C2FFDC48407903F0FFFBDDE0A3
:1052900084217EE0000623D40598D84B01020498AF
:1052A000D34F081811261880760160002018801C42
:1052B00080B238188019417F827F09028918620004
:1052C000D21851801919A031641CC07FA4B2887013
:1052D000502CEAD3C949029A039803F03CF9B5E08F
:1052E000852156E0C6488774B0E001209873029883
:1052F000002802D0012810D0A8E0BD4A1123304672
:105300005B0111190619C918E036641C497FA4B263
:10531000B175CC2CF5D3202125E0B64906222746CD
:105320000020574379188C46B3493B185A18F62188
:105330008E5C61460918FF320E744132167F762268
:105340005654AB4AC0319B18112252019A18401C86
:10535000527F80B20A770628E6D3641CA4B2112CCF
:10536000DBD3A5480E21417170E0000610D4A2499C
:105370000598E03188730498E97F000240189E493F
:10538000C03108869B4900208139FDF724FE5DE08D
:105390008B219C48817059E0FDF7C0FFBFF34F8F10
:1053A0009A499948C860BFF34F8FFEE7914E8F3EF0
:1053B000002F1FD08E4F1120391940010818717A23
:1053C000327A0902407F11437854707A317A0002B0
:1053D0000843401C80B2010A30727172FF2804D960
:1053E000002030727072FFF769FE641CA4B23C2C7E
:1053F000E1D32BE0002030727072587372B6012135
:1054000002F0CDFE002802D1012102F0B5FE62B605
:105410001CE00021764A112676010020CC00EB7EAC
:105420001B021B181B191B781718BF19401C80B2D0
:105430003B700828F3D3491CC9B22029EDD305E0FD
:10544000A02008740020487401208874A87E0728D2
:1054500001D0012000E000206949C87107B0F0BD0B
:10546000F8B584460023012080021E46614C0621C7
:10547000002259430F19B9180C182478012C11D0A7
:10548000FF250E7476246554C031521CD2B20E77BB
:10549000062AF0D35B1CDBB2112BE7D30020FEF70A
:1054A00079F9F8BD64460C7476246654ECE7F8B5D7
:1054B0000021504F0125AD020E4606224A43544BAF
:1054C0000020D419D3182218521916701A18FF3256
:1054D0000132401CC0B256700628F4D3491CC9B230
:1054E0001129EAD34B4C00276770FDF794F87F1C15
:1054F000FFB2062FF8D3002106223E4D4A4355192C
:10550000AC46434D002057193A18FF320132557806
:10551000012D05D1654601232E189D0275192B70AA
:105520000025401CC0B255700628EDD3491CC9B2F5
:105530001129E1D30220FDF7B0F900266670FDF7CE
:10554000E1F8761CF6B2062EF8D300210622294D8A
:105550004A435519AC462E4D002057193A18FF32D0
:1055600001325578002D05D1654601232E189D0284
:1055700075192B700025401CC0B255700628EDD35C
:10558000491CC9B21129E1D30220FDF786F9002692
:105590006670FDF740F8761CF6B2062EF8D30126A9
:1055A0000021B6020123134C06224A43184D002065
:1055B000141955192A18FF3201325778012F02D1D8
:1055C0002718BF193B700027401CC0B2577006282F
:1055D000F0D3491CC9B21129E5D3074914208871B9
:1055E000FF20FFF73DFFC82016E000000A1300105F
:1055F0004605001078090010E8100010780300102C
:10560000AC0E0010080100100400FA0500ED00E0E7
:105610003401001074030010FDF73FF90020FFF77C
:105620001FFFC820FDF739F9FF20FFF719FFC82039
:10563000FDF733F90020FFF713FFC820FDF72DF920
:10564000FF20FFF70DFFC820FDF727F903F007FA49
:105650000021012003F01BF90220FDF71EF90021B3
:10566000022003F014F90220FDF717F900210320AE
:1056700003F00DF90220FDF710F9F8BD012109072B
:105680000024C81386B0421108C808C1521E120473
:10569000120CF9D1BA4901200860FDF74EFDFDF763
:1056A00019FAFF209130FDF7F8F803F0E5F8022031
:1056B000FDF7F3F803F05AF80220FDF7EEF80020AA
:1056C00003F0A7FBFFF7F3FEFDF737FDAD4D002715
:1056D000AF7202F0D1FE1420FDF7DFF802F072FA8B
:1056E000FDF7DFFBC820FDF7D8F8A74E05E0641CE6
:1056F000B44205D80120FDF7D0F8A87A0028F6D0EA
:10570000AF75FCF7FEFF00F0BBF9A048019009213E
:105710009F48890141180491112149014618072029
:105720009D49C001081803909C489A4C08180090A5
:105730000098FDF73FFC0399401C097F0291401837
:105740000099FDF748FC687902994843401C68714C
:105750002079012807D18F486038806E012806D053
:10576000FFF7C4FC2771207B01280ED013E08C4882
:105770008449407E9231C207D20F4A708207D20F0D
:1057800040078A70C00FC870ECE7FDF75DFB277318
:10579000607B401C6073607B042804D3FFF7A6FC89
:1057A0006773FFF71FFC307D142802D3FCF733FF2B
:1057B0003775FEF7D5FEFEF7BCFC307E002802D020
:1057C000FEF71CFB377671482038407C012801D158
:1057D000FEF7ECFA6D4820388078012809D101984D
:1057E000017B70488078814203D301980773FEF7EC
:1057F000B3FA664820384078012801D1FEF783FAD1
:10580000624820384079012801D1FEF751FA5F48FB
:105810002038807A012803D161481038FEF72CFA2D
:105820005A4820380078012801D1FEF706FA574877
:105830002038C079012801D1FEF7CAF90498C07850
:10584000002801D1FEF71AF85748007800280AD13D
:10585000A87B002807D0534840790F2803D00020A8
:10586000FDF798FFAF73FDF7CBFEFDF77BFEFDF76D
:1058700013FEFDF778FDA87A012800D058E74A48C2
:10588000007855E7FEB546490720487647483D4D24
:10589000C7788F76203DAA7ECA763E48EE7E0E7788
:1058A0004023203803833B4B08461930603B586542
:1058B000001D01900A205043000300903C20464305
:1058C0003848813F002400783B00FDF7C2FB050407
:1058D000141755205500C8763020087720204877C7
:1058E0003348304AC37A8B774079C8772C4910798E
:1058F0002031087040E02F49009801E02E490098BF
:105900003C2240188019019902F05AFE34E0254EDD
:105910002A4902F011FE294B1888010A01D0012200
:1059200000E000221F49E0318A75C8756000201828
:105930006100801CC918C0B2498830180A0AE030DA
:105940008275C1751919A031641C8978A4B20176D9
:10595000502CEBD30020104A11235B01E97E3C243C
:105960006143091814188919E031E418401C897D35
:1059700080B261773C28F1D3FDF723F9FEBD00002A
:1059800000800440E608001070170000CC0E0010E4
:10599000340100103010001046050010A60300006E
:1059A00066070010E8100010300100100801001018
:1059B000B80A00100060FFFF0070FFFF78030010BE
:1059C00070B5F84CF84DA069233D401CA0612069DA
:1059D000401C20616069401C6061F348417B027B90
:1059E00009021143491C0173090A4173EF4901205F
:1059F000C872ED48C01E4179491C4171EC48017BD9
:105A0000491C0173EB48017D491C0175287F092859
:105A100002D2401C287770BDE34814300646FDF7DB
:105A2000C9FA3146401CFDF7D6FA00202877E04D30
:105A3000203D286A401C28622088401C2080DA48CB
:105A4000801F0646FDF7B6FA3146401CFDF7C3FA43
:105A5000E08B401CE083A869401CA861D548203831
:105A6000418F491C4187C18F491CC187CE480E30E8
:105A70000446FDF79FFA2146401CFDF7ACFA70BDC5
:105A800070B50124CC48E4070460CC487D21C900EE
:105A9000006803F0DBF9CA49884201D9012010E00F
:105AA0000102090AC748491E4161C7490723CA695B
:105AB0001202120A05042A43CA61002181610361AE
:105AC0000846002800D0FEE7BB488038046070BD5F
:105AD000F0B500210122920211270B46BF010624D6
:105AE000BA4E4C430C250020A4194D43AE1925187D
:105AF000AD182B7045007519ED19401CC0B2EB8430
:105B00000628F4D3491CC9B21129E8D30020B04BB0
:105B1000FF221A54191870246254E031401CC0B29C
:105B20000A706628F5D3F0BDF0B50021A94AA74C4C
:105B30000300FDF78EFA06042D51799DE82C002014
:105B40000301C3185B185D00A34B5B5BA34DAB4225
:105B500015D01F0ADDB2BC4611235B1A06279B181D
:105B60007D431E46203E2D19F67F65442E74272660
:105B7000F65C76277E554033DB7BC0352B77401CA7
:105B8000C0B20628DCD3491CC9B21129D7D3F0BD55
:105B900000200301C3185B185D008F4B5B5B8F4DCA
:105BA000AB4210D0DDB206277D431B0A2D19EB183E
:105BB000565C1E7455182826765D7627FE544035AF
:105BC0002D7CC0331D77401CC0B20628E1D3491C90
:105BD000C9B21129DCD3F0BD00200301C3185B1842
:105BE0005D007D4B5B5B7D4DAB4214D0DDB2062783
:105BF00005267D43361A1B0AB4462D19965DEB180F
:105C00001E746646B5182826765D7627FE54403504
:105C10002D7CC0331D77401CC0B20628DDD3491C43
:105C2000C9B21129D8D3F0BD00200301C3185B18F5
:105C30005D00694B5B5B694DAB4210D0DDB206275E
:105C40007D431B0A2D19EB18165C1E7415182826A7
:105C5000765D7627FE5440352D7CC0331D77401C81
:105C6000C0B20628E1D3491CC9B21129DCD3F0BD6A
:105C700000200301C3185B185D00574B5B5B574D59
:105C8000AB4210D0DDB206277D431B0A2D19EB185D
:105C9000565C1E7455182826765D7627FE544035CE
:105CA0002D7CC0331D77401CC0B20628E1D3491CAF
:105CB000C9B20829DCD3082100200301C3185B18EE
:105CC0005D00454B5B5B454DAB4213D01F0ADDB217
:105CD000BC46062710237D435B1AD65C2D1965440C
:105CE0002E749B182826F65C76277E5540331B7C45
:105CF000C0352B77401CC0B20628DED3491CC9B280
:105D00001129D9D3F0BD00200301C3185B185D0031
:105D1000314B5B5B314DAB4214D0DDB20627072619
:105D20007D43761A1B0AB4462D19965DEB181E7436
:105D30006646B5182826765D7627FE5440352D7CBC
:105D4000C0331D77401CC0B20628DDD3491CC9B240
:105D50000829D8D3082100200301C3185B185D006F
:105D60001D4B5B5B1D4DAB4213D01F0ADDB2BC4621
:105D7000062753187D431E46203E2D19367E654466
:105D80002E742026F65C76277E5540331B7AC0356C
:105D90002B77401CC0B20628DED3491CC9B211299A
:105DA000D9D3F0BDDC0E0010E90800106609001020
:105DB000CC0E00105403001080E100E02C01001014
:105DC000FFFFFF0000E000E004ED00E078090010B4
:105DD000C8140010D813001092980000FFFF0000B4
:105DE000F0B5FD480023817AFF297DD0817A027ABF
:105DF0008E465118CAB201E0113AD2B2112AFBD232
:105E0000511CCCB201E0113CE4B2112CFBD2417A1E
:105E1000032911D0F14EB518341956225626525D79
:105E2000365DB24210D9961B4F1C7E43F717BF0F49
:105E3000BE19B610921B11E0E84956220919525CAE
:105E40006031CE790C7E3EE0B24208D2B61A4F1CC9
:105E50007E43F717BF0FBE19B6109219D2B2603445
:105E60006035A446EE79E479A64208D9341B4F1C6C
:105E70007C43E717BF0F3C19A410341B09E0A6426E
:105E800008D2A41B4F1C7C43E717BF0F3C19A4107A
:105E90003419E6B22C7E65462D7EAC4208D9651BCE
:105EA000491C4D43E917890F49198910611A09E006
:105EB000AC4208D22D1B491C4D43E917890F4919E3
:105EC00089106118CCB2C44D7146C03D6A54827AC3
:105ED000294628315654827A28315454817A491CF3
:105EE000C9B28172112900E008E002D3FF2181725A
:105EF000C1725B1C9BB2112B00D277E7F0BD03018E
:105F0000C01870B540184100B548405AB54988429C
:105F100027D0C1B2030A01E0283AD2B2282AFBD224
:105F2000AD4E0620B04C4843C03E0019B55CC018C9
:105F30000574B2182825AE5C76252E544032157CA7
:105F4000DC2215540C25694309195B00C91811237B
:105F5000FF229B010132C918CA8402214A0280181B
:105F6000017070BD062802D2112900D2C7E7704720
:105F7000F0B59E4F0024385DFF287DD0002807D162
:105F800038197021095CE030E2B20078FFF7B7FF02
:105F9000385D012831D13D192E46E035287860362C
:105FA000401EE2B2317CC0B2FFF7DCFF2878E2B2DB
:105FB000401C317CC0B2FFF7D5FF307CE2B2401C00
:105FC000C1B22878FFF7CEFF307CE2B2401EC1B2EA
:105FD0002878FFF7C7FF307CE2B2401CC1B22878B6
:105FE000401EC0B2FFF7BEFF307CE2B2401EC1B21D
:105FF0002878401CC0B2FFF7B5FF385D022872D187
:106000003D192E466036307CE035401EC1B22878FE
:10601000E2B2801EC0B2FFF7A5FF2878E2B2801E70
:10602000317CC0B2FFF79EFF307CE2B2401CC1B2AF
:106030002878801EC0B2FFF795FF307CE2B2801E48
:10604000C1B22878401EC0B2FFF78CFF307CE2B2AC
:10605000401EC1B22878401EC0B2FFF783FF307CDB
:10606000E2B2801CC1B22878401EC0B2FFF77AFFAE
:10607000307CE2B2801E00E043E0C1B22878FFF736
:1060800071FF307CE2B2801CC1B22878FFF76AFF52
:10609000307CE2B2401CC1B22878401CC0B2FFF78D
:1060A00061FF307CE2B2801EC1B22878401CC0B2D1
:1060B000FFF758FF307CE2B2401EC1B22878801C46
:1060C000C0B2FFF74FFF2878E2B2801C317CC0B22B
:1060D000FFF748FF307CE2B2401CC1B22878801C38
:1060E000C0B2FFF73FFF3D48C07A0028385D01D0BD
:1060F000401E05E0401CC0B23855032801D3FF20E4
:106100003855641CA4B2662C00D234E7F0BD70B5DB
:10611000364A0024135DFF2B04D0641CE4B2662CC5
:10612000F8D370BD06235843401841003048405A08
:106130002C49884205D0111970235854000AE031C7
:106140000870254601E0283DEDB2282DFBD22348FA
:106150000023C07A002820D0022010551F481E4E70
:1061600020308078C03E002819D02248FCF722FF5A
:106170002049241D891F4979282348436043C0B220
:10618000410040181C490A5C411872554A78701940
:106190001A5489784030017470BD1355DEE70E49FA
:1061A0000E480A7A4030002A0AD0827B7255721952
:1061B000047C2825AC54807C403210740B7270BD76
:1061C000427B7255C37B72192824A354407C403211
:1061D00010740120087270BD98140010E8100010AF
:1061E00092980000FFFF000078090010C81400100A
:1061F00036970000EC0800105E99000070B5FF4A69
:106200000024135DFF2B04D0641CE4B2662CF8D389
:10621000E1E70623584340184100F948405AF9493C
:10622000884205D0111970235854000AE0310870D3
:10623000254601E0283DEDB2282DFBD2F24800238F
:10624000807A002806D010196030007C0B2803D318
:10625000401D03E0135502E01B21081A1055EA48BF
:10626000EA4E20304078002817D0E948FCF7A2FE1B
:10627000E749241D891F4979282348436043C0B258
:1062800041004018E3490A5C411872554A78701978
:106290001A548978403001749DE7DC49DA48C031EE
:1062A0000A7A4030002A0AD0027A72557219847A2A
:1062B0002825AC54007B403210740B728BE7C279F6
:1062C0007255437A72192824A354C07A403210744C
:1062D000012008727FE7F0B500211126CE4DB601EE
:1062E0000C2200204A4354194200A2189319DA8C58
:1062F000002A0DD0921E1204120CDA8408D1062353
:106300004B435B191B181A747627FA54C0331A775B
:10631000401CC0B20628E7D3491CC9B21129DFD3FB
:10632000F0BDF8B50024B54E305DFF287DD035199D
:106330002F466037397C0A18322A0AD30A1AD2B299
:10634000322A06D33146FF220819E03002700A557E
:10635000F8BDE0352A78824204D3101AC0B2E2B206
:10636000FFF7CDFD2878315D4018C0B2062803D272
:10637000E2B2397CFFF7C3FD387C315D884210D32F
:10638000401AC0B28446E2B228786146FFF7B7FDF2
:106390002878401C062804D2E2B2C0B26146FFF75A
:1063A000AEFD9648397C005D0818C6B2112E0DD29C
:1063B000E2B228783146FFF7A2FD2878401C062873
:1063C00004D2E2B2C0B23146FFF799FD8B48005DBE
:1063D000022861D301265BE0397C8919814227D3E9
:1063E000081AC0B20090297870008446081A401C30
:1063F000C0B2E2B20099FFF7B5FD29786046081AED
:10640000C0B2E2B20099FFF7ADFD29786046401CAA
:106410000818C0B2E2B20099FFF7A4FD29786046DF
:106420000818C0B2E2B2009900E03DE0FFF79AFD23
:106430007248397C005D0818801B112824DAC0B22C
:106440000090297870008446081A401CC0B2E2B25D
:106450000099FFF787FD29786046081AC0B2E2B2BA
:106460000099FFF77FFD29786046401C0818C0B2EC
:10647000E2B20099FFF776FD297860460818C0B2AD
:10648000E2B20099FFF76EFD062E05D2761CB6B279
:106490005A49085DB0429FD85B48807A002809D0ED
:1064A0005648015D491E0155641CA4B2662C00D2F9
:1064B00039E7F8BD5149085D401C0855F4E7F8B5C7
:1064C000044651480E4620301546017820460622E3
:1064D0005043012911D051494F4B40188019FF30CA
:1064E0000C21013061434278C918112073008001EA
:1064F000C9180918012A10D018E04548611D801FED
:1065000040794843162102F0A1FC4800081841498F
:106510000A5C40184178837811E03C48C030C27A68
:10652000002A19D00022C272D0B2C884C88C364961
:10653000354B4131425C891C4533415CC35C0620CC
:106540004443354801272018BF028019C419012D82
:1065500004D002202070F8BD0122E4E70325257055
:10656000027476221154C0300377F8BD70B506234B
:106570004343294D0C265B195B18704340194900B1
:1065800001244018A40211211B198901A4104018EC
:10659000012A03D002211970C4841CE60321FAE702
:1065A000FEB5164B1546184A1F46D27FE0330093BE
:1065B00006234343124E5918490000246037765A87
:1065C000012A02D0012D5FD010E01149801C891FE3
:1065D0004A791621504302F039FC480008180D4949
:1065E0000B5C401841788078012D58D0054DAE42A3
:1065F00049D0F0B238748446300A11E0C814001053
:1066000036970000FFFF0000E8100010D8130010BC
:10661000EC0800105E9900007809001034010010A9
:106620000099FF4B087002210201861830194000C2
:10663000185AA8420AD0C2B206277A43F94F000A74
:10664000D21912180120800210180170641CE4B2E3
:10665000112CEBD30020F34D0127BF020201841857
:106660006246A21852009A5AEF4CA24207D0D4B206
:1066700006267443120A6419A218D2191170401C1C
:10668000C0B20628EAD3FEBDE849E948CA7A002A22
:106690004ED00022CA72037F817F20300078E24A08
:1066A0009642F0D0F2B23A740192320A009D03266B
:1066B0002A70150152199446624612195500D84A9B
:1066C000525BD94DAA420FD0D5B206277D43D54F94
:1066D000120AED19AA180125AD0255192E7013746E
:1066E0007625A954C0321077641CE4B2112CE3D390
:1066F000002214011519019C2C196500C84C645B1B
:10670000C94DAC420FD0E5B206277D43C54F240AE0
:10671000ED192C190125AD0265192E70237476250B
:106720002955C0342077521CD2B2062AE1D3FEBDCF
:106730000122CA72C37E417FC07FB0E7F8B5BD4D6C
:1067400000242A5DFF2A04D0641CE4B2662CF8D32E
:10675000F8BD0622504340184100B748405AB2499C
:10676000884205D0291970225054000AE03108707F
:10677000AF4E0027203EB07F00281BD0AF48FCF76B
:1067800019FCAE49891F49794843112102F05EFB8B
:10679000C9002819E030027811430170307B0028CD
:1067A0001BD028196030007C082801D21121081A5A
:1067B0002855F8BD9D48C17A002907D02919E03134
:1067C0000A7808231A430A70C772E7E72919E031EB
:1067D0000A780A700121C172E0E72F55F8BDF0B5C3
:1067E000002419277F018F480621002261430818E1
:1067F0008646704601218018890241188C46097826
:10680000FF2902D002290AD03FE08D4976254B7B33
:1068100003748B7B2B54C97BC030017735E00B258B
:10682000AD014519037CAD7B0021AB4201D95B1E54
:1068300002E0AB4202D25B1C037400E0012105467A
:106840006035C619AB7D367DB34201D95B1E02E0CF
:10685000B34202D25B1CAB7500E0491C05460646FC
:106860000720C001C03530182B7F807E834201D9BC
:106870005B1E02E0834202D25B1C2B7700E0491CC6
:10688000032902D3FF2160460170521CD2B2062AAE
:10689000AFD3641CE4B2112CA5D3F0BDFEB564499E
:1068A00000202039897F5F4D009162490A5CFF2AF0
:1068B0007ED009180B4660339E461B7C02939B18C2
:1068C000DBB2112B32D2E024675C7C07640F260117
:1068D000A419E3185C00524B1C5B534B9C4225D01F
:1068E000FE08E3B2009F240A002F71D07700F71949
:1068F000544E0197F75D06265E43761936193774B4
:10690000B446504E019FBF1901977E7867466037A5
:10691000BE75019F6646BF78C036377706277B4332
:106920005B1902261C197302E3181E70029B9B1A46
:10693000DBB2112B32D2E024675C7C07640F2601A6
:10694000A419E3185C00364B1C5B374B9C4225D0E6
:10695000FE08E3B2009F240A002F4ED07700F719FB
:10696000384E0197F75D06265E437619361937745F
:10697000B446344E019FBE1901967778664660365C
:10698000B775019EB7786646C036377706277B43D2
:106990005B1902261C197302E3181E70244B203B5E
:1069A0001B7B002B234B51D0521ED2B21A5400E055
:1069B00007E0F02A05D3FF221A5473461A74E03117
:1069C0000A70401CC0B2662801D26EE700E0FEBD2E
:1069D000174F203FBE192036B446777D06265E430A
:1069E00076193619019637746646F77D019E603632
:1069F000B7756646777E019E8EE70D4F203FBF1923
:106A0000062620375E43019776197F7D3619377445
:106A1000019FB446FE7D67466037BE75019F13E057
:106A20009298000078090010FFFF000098140010F1
:106A300008110010C814001036970000EC08001070
:106A4000B80A00105E9900007F7E9CE7521CD2B20B
:106A50001A54112AAFD2B4E7F0B5002219256D01FE
:106A60000620FC4B00215043C01884466046012399
:106A700040189B02C4182378F64E032B10D0022B2B
:106A80002DD00023037476242354C0300377491C8F
:106A9000C9B20629EAD3521CD2B2112AE0D3F0BD02
:106AA0000C2353439B194C001C1911230B269B01EB
:106AB000B601E3188619DC8CB67B7443240A04748F
:106AC0004619DC8C367D7443240A76263454072418
:106AD000E4010419DB8CA47E63431B0AD5E70C2771
:106AE00013467B439B194E009E1911230B279B01D4
:106AF000BF01F318C719DE8CBF7B7E43360A0674CC
:106B00004719DE8C3F7D7E43370A762637540727A8
:106B1000FF01C719DE8CBF7EC0307E43360A067780
:106B2000D88C801E80B2D884FF28B0D90020D884A9
:106B30002070ACE7F0B500250620C6490022684366
:106B40004018844660468118012080020C18237882
:106B5000C04E002B50D028460C2778438019560091
:106B6000861911200B278001BF013018CF19C68C60
:106B7000BF7B7E43360A19270E747F01CF19C68C5E
:106B80003F7D7E43370A762677540727FF01CF19CA
:106B9000C68CBF7EC0317E43360A0E77012B06D0ED
:106BA000022B0CD0032B13D0042B1CD024E0C18C5F
:106BB000891C89B2C18480291ED380210FE0C18C39
:106BC000891C89B2C184FF2916D9FF21013106E051
:106BD000C18C891C89B2C18440290DD34021C18454
:106BE0000420207008E0C18C491E89B2C184FF29AD
:106BF00002D90021C1842170521CD2B2062AA1D32D
:106C00006D1CEDB2112D97D3F0BDF8B50022924D59
:106C1000AC182046E03003788646FF2B5AD0180780
:106C2000000F06284AD2010141187020005D0818A3
:106C300041008A48415A8A4881423FD0894EC8B2B1
:106C4000767F090A002E4AD0AD5C6E00AE19864DE3
:106C5000B446AF5D0626054675437E4EAD190B263C
:106C60006D18B601AE19B7737F4F6646F619B44674
:106C7000777819267601AE19377507276646FF0122
:106C8000B678ED19AE760C2605467543714E002791
:106C9000AD194E00AD191126B601AD19EF841D09CD
:106CA000012D02D0022D00D0032506267043694E27
:106CB00080194118012080020818057070465B1C7D
:106CC00003701807000F062804D3FF2060342074D7
:106CD00071460870521CD2B2112A98D3F8BD614D8A
:106CE00006272035AC46AE7C05467D43594FED194D
:106CF0006D180B27BF010095ED19AE736546EF7C4B
:106D00001926009D7601AD192F7565462F7D072642
:106D1000009DF601AD19AF76B5E7F8B54E4E0446C5
:106D2000351928466030017CFF2913D104744F487F
:106D3000E035FCF73FF94D49891F4979484307463B
:106D4000032102F083F8080128703846112102F06F
:106D50007DF83155F8BD30B5410045480622415A0D
:106D60000124C8B2034653433A4A090A9B185B18E8
:106D7000A5025B191C7023020C2460438018490093
:106D80004018112189014018C38430BD30B541003D
:106D900038480622415A0124C8B2034653432D4ABB
:106DA000090A9B185B18A5025B191C700C24604330
:106DB0008018490040181121002389014018C3841C
:106DC00030BDF0B5274C0020267F2B4D01462034E6
:106DD000214A125C012A5FD1002E0BD0AA7B5300FE
:106DE000D318214AD35C244FC03F3A5C9A4203D265
:106DF000521C04E0637BF6E79A4202D9521E3A54D1
:106E000000E0491C002E0DD0AA7B5300D318164A6F
:106E10009A1853783F18BC4620373A7A9A4203D2E0
:106E2000521C04E0E37BF5E79A4202D9521E3A7203
:106E300000E0491C002E21D0AA7B5300D3180A4A37
:106E40009A189378674640373A7C9A4218D2521C77
:106E500019E0000078090010C81400109298000092
:106E6000FFFF0000E81000105E990000EC08001021
:106E7000E43000000298000098140010637CE1E701
:106E80009A4202D9521E3A7400E0491C032902D3E7
:106E9000FB4902220A540021401CC0B2182897D393
:106EA000F0BD70B50021F74C01239B0206220020A3
:106EB0004A4312191518ED182D78002D2FD1401CBA
:106EC000C0B20628F6D3491CC9B21129EED3EE4C44
:106ED0000026A07A2546C03D002821D0A672E67281
:106EE0002672EA4866724079112101F0AFFFE74847
:106EF0006173801DFCF75EF8112101F0A7FFA173FB
:106F0000E6732674FEF7E4FD00202E54291828228B
:106F100056544031401CC0B20E742828F5D370BDC1
:106F2000607A0128FBD1A072FEF7D2FDD4486672C8
:106F3000072160300174022180300170D448E6726C
:106F4000007F00281AD0D34B0020617B28264A00FE
:106F50008918595C2954617B4A008918C9184A78F4
:106F600029187254627B403156009219D218401C85
:106F70005278C0B20A742828E7D370BDC4490020F3
:106F800020310C7B8B7B0A7C2C54291828267354C7
:106F90004031401CC0B20A742828F5D370BDF8B542
:106FA0000024FFF70EFFB84EB64FC03EB448005D58
:106FB000012802D0022823D04BE0002021460622DF
:106FC00051438C46614609184A00B349895AB34A6D
:106FD000914210D0CAB206256A43090AD219511843
:106FE000335D0B7433192822D55C76225554403317
:106FF0001A7CC0310A77401CC0B20628E2D328E0D0
:1070000000202146062251438C46614609184A0059
:10701000A149895AA14A914214D0CAB206256A43AD
:10702000090AD2195118335D0B7433192822D55C23
:107030007622555440331A7CDC235A5402225302E0
:10704000C9180A70401CC0B20628DED38C48032140
:107050000155641CE4B20C2CA8D3894D0C20295C8A
:10706000012902D002291AD038E08D494200511876
:107070004039098D894A914230D0CAB20624624310
:10708000090AD2195118335C0B74321828239C5CFE
:1070900076235C544032127CC0310A771EE080496E
:1070A000420051184039098D7C4A914214D0CAB22D
:1070B00006246243090AD2195118335C0B74321842
:1070C00028239C5C76235C544032137CDC2253548E
:1070D00002225302C9180A7003212954401CC0B26D
:1070E0001828BCD3FFF7DDFEF8BDF1B56449702266
:1070F000525C83B00020E03101920978009103E1F5
:107100000199091ACCB2102C00D9FF240199091851
:10711000CBB2102B00D9FF230099091AC9B2052957
:1071200000D9FF21009A1218D2B2052A00D9FF22F5
:10713000FF2C36D0FF292FD00D46FF2A2ED00292E9
:10714000AC46029DAC452CD865462E01AD192D19D3
:107150006E00544DAE5B514DAE4219D0F5B2360AB9
:10716000B64606266E43474D474F7519C03F7544D6
:107170003F5CAE462F74444DC03D2F182825EE5D70
:1071800075466035AE755025EE5D7546C0352E7777
:1071900065466D1CEDB2D3E70025CEE705260296C5
:1071A000CEE7FF2B36D0FF292FD00D46FF2A2ED059
:1071B0000292AC46029DAC452CD865462E01AD1915
:1071C000ED186E00374DAE5B344DAE4219D0F5B2BE
:1071D000360AB64606266E432A4D2B4F7519C03F18
:1071E00075443F5CAE462F74274DC03D2F182825AF
:1071F000EE5D75466035AE755025EE5D7546C03561
:107200002E7765466D1CEDB2D3E70025CEE7052647
:107210000296CEE7FF2949D0651CEDB2FF2B43D083
:107220005E1EF6B20296AC46029DAC453ED80D01FC
:107230004E19654675196E001A4DAE5B174DAE427C
:1072400019D0F5B2360AB64606266E430D4D0E4FDE
:107250007519C03F75443F5CAE462F740A4DC03D62
:107260002F182825EE5D75466035AE755025EE5D0C
:107270007546C0352E7765466D1CEDB2D3E700002C
:10728000C81400107809001098140010E6080010C7
:10729000E81000105E99000002980000FFFF000057
:1072A000E4300000929800001026BBE7FF2A29D0A6
:1072B000641CE1B2FF2B02D05B1EDDB220E0102582
:1072C0001EE01301D3185B185C00FD4B1B5BFD4CEB
:1072D000A34213D0DCB206277C43FC4F1B0AE419FF
:1072E000F94EE318365CF84C1E7424182826365DD7
:1072F0007627FE544034247CC0331C77491CC9B225
:10730000A942DED9401CC0B203990978814200D954
:10731000F6E6FFBDF0B58446EC48002306220021C6
:107320005A4315186246032A28D101246A18A40278
:1073300014192478002C4FD00C245C4324184E00E0
:10734000A61911240B27A401BF013419D719E68C03
:10735000BF7B7E43360A192716747F01D719E68C46
:107360003F7D7E43370A7626B7540726F6019619E5
:10737000E48CB67E7443240AC032147701226C1860
:107380009202A2181478012C02D0022C13D023E010
:107390000C245C4324184E00A6191124A4013619AC
:1073A000F48CA41CA4B2F484FF2C15D9FF2401345E
:1073B000F48402240FE00C245C4324184E00A61928
:1073C0001124A4013619F48CA41EA4B2F484FF2C59
:1073D00002D90024F4841470491CC9B20629A1D32F
:1073E0005B1CDBB2112B99D3F0BD042092E7F0B502
:1073F0000546B54C00780027B54EC0340C2814D291
:10740000297806204843C019B24A4300D35AAD4AEE
:10741000934203D0C0B20122FFF7B8FC7F1CFFB239
:10742000062FEDD3002060723CE00C202870012173
:107430006172E07B022835D2207CA74A84468154C1
:10744000A3482038037FA048024601460C3234315D
:107450005C30002B50D0637B5F00DF199F4BDF5DFA
:1074600063469F54627B5300D3189C4A9A18237C2E
:1074700052785A54617B4A008A1898495118897881
:10748000227C1154207C01220146FFF764FC207C01
:10749000401CC0B220740C2804D300202074E07B70
:1074A000401CE07328780C2822D28B4A01210C3A28
:1074B00011548748844B2038027F194618462831DA
:1074C0005030002A20D0627B2F7856009219834ECC
:1074D000B25CDA55627B5300D21892192B7852783D
:1074E0005A54617B4A008918891989782A7811547D
:1074F0002878401C2870F0BD337B6746BB54237C42
:10750000B27B5A54317CBBE72C78327B1A552B78EE
:10751000B27B5A54317CE9E7FEB5714800244779C3
:107520001121384601F092FC6D480E46801D0090F6
:10753000FBF740FD062101F089FC0D4619E0694882
:107540001121857A3846684301F080FC0E46009888
:10755000FBF730FD01904019062101F077FC0198FE
:107560000D4600190099FBF736FD641CE4B2662C49
:107570000BD2062055497043401841190120800262
:10758000081800780028DAD10AE006204F49704335
:10759000401841190120800208180078002827D1DE
:1075A00006204A4A70438018012144198802201895
:1075B00001700C214E43B1186A0089181122920102
:1075C00000208918C88442480B252038C07E19261F
:1075D0000727AD017601FF0101280AD03C48621956
:1075E000417A9173817AA2191175C07AE11988766E
:1075F000FEBD0098FBF7DEFC162101F027FC4800D9
:107600000818364963190A5C9A7340184178A21920
:1076100011758078EAE72C49C031CA7A521CD2B27F
:10762000CA72824201D30020C8727047F0B5264B5F
:107630002A4EC033DA7A002055005519597D725D03
:107640000446914201D9491E02E0914202D2491CEE
:10765000597500E00120AD19997D6A78914201D9F0
:10766000491E02E0914202D2491C997500E0401C7B
:10767000D97DAA78914201D9491E02E0914202D2F5
:10768000491CD97500E0401C032802D31620FFF7DF
:10769000C2FF5E7D9D7DDF7D0C4906220020624396
:1076A000531819180E7476225554C031401CC0B2BC
:1076B0000F770628F5D3641CE4B2112CECD3F0BD8F
:1076C00092980000FFFF0000D81300107809001006
:1076D0000811001002980000D41400105E990000F8
:1076E000E6080010B0140010F0B5D84BD8495D7909
:1076F00000204A8A012D25D00B27BF01D549062439
:10770000002344436618F118CC19A47B5B1C544336
:10771000240A0C74192464010C19247DDBB254432F
:10772000250A762465540724E4010C19A47EC0318F
:107730005443240A0C77062BE5D3401CC0B2112811
:10774000DCD3BCE79B7E012B25D0C04BC97A1E46FB
:107750002336B51CAF1C8B5D4D5DC95D534355434E
:107760001B042D0451431B0E2D0E09040E0EB94AA5
:10777000062400214443A7187A1813747624A554CC
:10778000C032491CC9B216770629F5D3401CC0B2D5
:107790001128ECD393E7097DAF4B4D0049195D5C8F
:1077A000C9184B78554389782D0453432E0E1B047A
:1077B00051431D0E09040F0EA64A06230021434320
:1077C0009C186218167476239D54C032491CC9B2A5
:1077D00017770629F5D3401CC0B21128ECD36EE709
:1077E00010B59B4CA17A608A00291AD0401E80B245
:1077F0006082FF2810D900206082A0720220FFF76B
:107800000AFF9648FBF7D6FB9449891F49794843FC
:10781000232101F01BFB21758C484079FFF764FFA1
:1078200010BD401C80B26082FF28F5D9FF200130D6
:1078300060820120A072EFE785494A7A521CD2B2D9
:107840004A72824209D300224A72CA72087A401CE4
:10785000C0B20872112800D30A727047F8B57C488C
:10786000C17A407A002802D17D4A012050547C48D8
:107870006030007C421AD4B2102C00D9FF2440188A
:10788000C2B2102A00D9FF227548E0300378581A96
:10789000C0B2052800D9FF205918C9B2052900D95E
:1078A000FF21FF2C35D0FF2804D00346FF2903D049
:1078B00000912BE00023F9E70525009526E01D0146
:1078C0005D192D196E00674DAD5B674EB5421BD03B
:1078D000EEB2B4462E0AB6466646062575435D4EA0
:1078E0000127AD197646AE19BD0275192F703D02FC
:1078F00067460C267743574EBF1976467600BF1968
:107900001126B601BE19F5845B1CDBB2009DAB42AB
:10791000D5D9FF2A35D0FF2804D00346FF2903D04C
:1079200000912BE00023F9E70525009526E01D01D5
:107930005D19AD186E004B4DAD5B4B4EB5421BD083
:10794000EEB2B4462E0AB646664606257543414E4B
:107950000127AD197646AE19BD0275192F703D028B
:1079600067460C2677433B4EBF1976467600BF1913
:107970001126B601BE19F5845B1CDBB2009DAB423B
:10798000D5D9FF2833D0631CDBB2FF2A03D0551EA4
:10799000EDB2009529E01025FBE705014519ED182A
:1079A0006E00304DAD5B304EB5421BD0EEB2B446EA
:1079B0002E0AB646664606257543264E0127AD19A2
:1079C0007646AE19BD0275192F703D0267460C262A
:1079D0007743204EBF1976467600BF191126B601AF
:1079E000BE19F5845B1C009DDBB2AB42D5D9FF29E3
:1079F0002BD0641CE0B2FF2A02D0521ED4B222E087
:107A0000102420E00A018A1812185300154AD35A8C
:107A1000154A934215D0DAB206260E4F56431B0A7A
:107A2000F619F7180125AE02BE1935700C267243FF
:107A3000084E5B009219D31811222D0292019A1858
:107A4000D584401CC0B2A042DCD9F8BDE8100010BB
:107A50009814001078090010A0990000EC0800109C
:107A6000C814001092980000FFFF0000FC48016855
:107A70004022114301600168FA4A11430160FA484B
:107A8000C16849094901C160C16809221143C16047
:107A90008169C908C900816181690122114381613D
:107AA0007047F249F24B4A150128086804D0104388
:107AB0000860002098617047904308600120F9E752
:107AC00000B5EC480078800709D50120FFF7E9FFF1
:107AD000E6480168012252049143016000BD002084
